:1000000063EF05F00C0062005600620056000C0021
:10001000010E0F5C016E0134006E00360036F80EE2
:10002000001600500509CA6E0EC0CBFF94948B9445
:100030000C0EBD6EB76AB66A94928B92BA6EC150BE
:10004000C00BC16EC050C00B0709C06EC08EC2800D
:10005000AFEF05F0EA6A590EE96EEF500EE0010EBF
:10006000016E006A002EFED7012EFBD74A0E006EED
:10007000002EFED700D0EF2EF2D712006039F00B21
:10008000006E0F0E8C1400108C6E00008C8000D05F
:100090008C9012008350006E00380F0B016E12001E
:1000A0000F0E9514F009956E8C8400008C80000072
:1000B000F1DF01C060F08C9000008C800000EADF6E
:1000C00001C05FF08C900F0E9514956E6039006E34
:1000D000F00E001600505F10016E74EF00F0959066
:1000E000959295948C92DCD701C05FF001BEFBD74E
:1000F0008C925DB08C8200008C9400008C905E38F5
:100100005F6E0F0E5F165FC060F0B8DF5E500F0BC2
:100110005F6E606FB3DF1200280E4C6E0C0E4D6EDA
:10012000010E4E6E060E4F6E8C908C928C940F0EBC
:100130009514956E9590959295940F0E596E8ADF51
:10014000010E4B6E4B50030808E3030E606F96DF01
:10015000050E596E7FDF4B2AF5D7020E606F8EDFDA
:10016000050E596E77DF4B6A4B5003080FE3036AA5
:100170004B504C0FE96E000E0320EA6EEFCF50F0AB
:100180005D6A50C05EF0ABDF4B2AEED7B1EF05F0F1
:100190005A2C01D003D0400E5B6E01D05B6A010E79
:1001A000595C5B265B5080095C6E5D6A5E6E97DF12
:1001B00012005850070A07E00B0A0AE0060A10E08E
:1001C000020A14E018D0010E596E5A6EE1DF18D001
:1001D0005D6A010E5E6E83DF020E596E3BDF10D04A
:1001E000010E596E020E5A6ED3DF0AD05D6A100EF0
:1001F0005E6E75DF05D0010E5D6E58C05EF06FDF7C
:1002000012000900F5520CE0F6CF4BF0F7CF4CF09E
:10021000F5CF58F0CEDF4BC0F6FF4CC0F7FFF1D75B
:1002200012008E0E006E4CC001F04BC002F0036A4B
:10023000015209E102C001F0026A080E005E01529B
:1002400002E1006A08D0D89001BE04D0023601361F
:100250000006F9D7019E12005850D8B471D0006E34
:100260005C50D8B46DD0002604E3810E002668E20D
:1002700004D07F0E005E64E363E059C060F05D501F
:10028000601B598E5D8E5B505F02F4CF62F05A5056
:100290005E02F4CF03F0F3CF61F05F02F350622708
:1002A000F4506123000E03225B505E02F35062277C
:1002B000F4506123000E026A0322022259505F02A9
:1002C000F3506127F4500322000E022259505E02BF
:1002D000F3500326F4500222000E016A01225B5003
:1002E0005D02F3506127F4500322000E0222012226
:1002F0005A505D02F3500326F4500222000E0122F0
:1003000059505D02F3500226F4500122002A01BE2A
:1003100005D061370336023601360006000E61AFA4
:100320000AD0032A02220122015005E1025003E112
:10033000035001E1002A60BF018E60AF019E04D02E
:10034000006A016A026A036A12004F50D8B4A5D04D
:100350005B6E5350D8B4A1D05B5E05E37F0E5B2685
:10036000D8B09BD006D0810E5B5ED8A096D0D8B412
:1003700094D05BC000F0016A026A036A5A6A50C0F6
:1003800059F0598E51C058F052C057F0190E5B6E9B
:100390005650575E0DE2010E585E0AE2595E08E2C1
:1003A0005A5E06E25A2A592A582A5650572628D009
:1003B0005550585E12E2010E595E0FE25A5E0DE290
:1003C0005A2A592A555058265650572619E3582A62
:1003D00017E1592A15E15A2A13D054508009595E61
:1003E0000EE2010E5A5E0BE25A2A54508009592639
:1003F00055505826E9E3592AE7E15A2AE5D7038000
:100400005B2E01D00BD0D8905736583659365A3615
:10041000D8900336023601365C36BAD75CA006D0D7
:10042000D8900132023203325C3202D0000635E04D
:100430005CBE1ED0D8905736583659365A3656506C
:10044000575E07E2010E585E04E2595E02E25A5E10
:100450001AE35550585E05E2010E595E02E25A5EFB
:1004600012E354508009595E03E2010E5A5E0BE319
:10047000032A09E1022A07E1012A05E1002A0DE029
:1004800001320232033250C05BF054505B1A5BAE53
:1004900002D0018E06D0019E04D0006A016A026A71
:1004A000036A1200800ED8B2541A596A5A6A50C0B0
:1004B00058F05450581A4F50D8B4DCD0576E006ED4
:1004C0005350D8B4E0D0575ED8B481D03DE354C087
:1004D0005DF05D8E55C05CF056C05BF05A6AD890F6
:1004E0005D325C325B325A32572EF8D758AE03D0A9
:1004F0005980DDD0599057905988EA6A520EE96EBA
:10050000E9D0599858BE0AD057A013D05D325C325A
:100510005B325A32002AD8B4C5D00BD05DBE0CD0A5
:10052000D8905A365B365C365D360006D8B4BAD001
:10053000F5D7598C6BD0599C50C058F050AE02D0B2
:100540005D8EA9D05D9EA7D053C057F053C000F078
:100550004F50575E50C05DF05D8E51C05CF052C090
:100560005BF05A6AD8905D325C325B325A32572E59
:10057000F8D758AE03D059829AD059925790598AD9
:10058000EA6A560EE96EA6D0599A58BE0AD057A00C
:1005900013D05D325C325B325A32002AD8B482D03A
:1005A0000BD05DBE0CD0D8905A365B365C365D36CB
:1005B0000006D8B477D0F5D7598E28D0599E54C0AC
:1005C00058F054AE02D05D8E66D05D9E64D054C0AB
:1005D0005DF05D8E55C05CF056C05BF058AE04D047
:1005E0005D9E598464D059945A6A5790EA6A520EB3
:1005F000E96E70D058BE1CD050C058F057A006D03D
:100600005D325C325B325A32002A4CE05AAE0BD07B
:100610005B2A09E15C2A07E15D2A05E15D325C3273
:100620005B32002A3FE059BC86D759BEC7D71CD0E1
:10063000800E5D1A5DAE04D03AD054C058F00AD096
:1006400050C058F05D5206E15C5204E15B5202E199
:10065000006A21D05DBE08D0D8905A365B365C3631
:100660005D36002EF7D71ED058AE02D05D8E13D067
:100670005D9E11D053C000F054C05DF055C05CF0D9
:1006800056C05BF008D04FC000F050C05DF051C0C4
:100690005CF052C05BF05DC001F05CC002F05BC07A
:1006A00003F034D0006A016A026A036A2FD05A6AE2
:1006B0005B1E5C1E5D1E5A1E5A2A05E15B2A03E181
:1006C0005C2A01E15D2A59B015D759B256D759B401
:1006D0008AD7B3D7EF505B2605E35C2A03E15D2A96
:1006E000D8B45780ED52EF505C2603E35D2AD8B4AE
:1006F0005780ED52EF50EFBE01D0800A5D26D8B092
:10070000578059B8FED659BA3FD774D712004CC09B
:1007100053F05050531A53AE05D0D894D8904CBED5
:10072000D8802FD04CC053F04FC054F04B50545E83
:1007300006E053AE26D0D850010AD86E22D050C061
:1007400054F04C50545E06E053AE1BD0D850010A12
:10075000D86E17D051C054F04D50545E06E053AEE1
:1007600010D0D850010AD86E0CD052C054F04E5060
:10077000545E06E053AE05D0D850010AD86E01D0C1
:10078000D89012008E0E006E4B50005E4CC002F0EE
:100790004DC001F0028E005209E0D890025202E1F1
:1007A000015204E002320132002EF7D74CAE05D0E0
:1007B000011E021E012AD8B4022A53EF08F0EACF24
:1007C00053F0E9CF52F04C38F0094E6E4E26E20F4E
:1007D0004F6E320F516E4C500F0B4F264F26512645
:1007E000E90F506E502650264B380F0B50265126DD
:1007F00050365136511E51364B500F0B51264E3646
:10080000070E4D6E0A0E50065126FDE34F06502688
:10081000FDE34E064F26FDE34D064E26FDE3EA6A54
:100820004D0EE96E070E5214529CE926000EEA2284
:10083000E950510803E1EA5201E1528CEF50006E99
:1008400008E152BC06D052B813D052B602D0200EE6
:1008500003D052865298300E0026EACF4CF0E9CFF2
:100860004BF000C058F0A5DC4CC0EAFF4BC0E9FFDC
:10087000EE5052ACDDD712005850B608586E036ADD
:1008800059C05CF0598ED89059325A325B320332DB
:10089000023201320032582EF6D75CAE0BD0001E69
:1008A000011E021E031E002AD8B4012AD8B4022A4F
:1008B000D8B4032ACAEF04F0D8B203D0EA6A600EB3
:1008C000E96E006A016A026A036A606B616B626BBF
:1008D000636B5F505E105D105C102CE0200E646F47
:1008E000D890583659365A365B366037613762379A
:1008F00063375F50635D08E15E50625D05E15D5006
:10090000615D02E15C50605D0FE35C50605F5D50D3
:10091000D8A05D3C615F5E50D8A05E3C625F5F50D6
:10092000D8A05F3C635FD8800036013602360336BC
:10093000642FD6D760C0EFFF61C0ECFF62C0ECFF50
:1009400063C0ECFF1200E950506E4F50526E19E038
:100950004EC05BF04DC05AF04CC059F04BC058F03F
:100960005F6A5E6A200E5D6E820E5C6E75DC03C08F
:100970004EF002C04DF001C04CF000C04BF0522EC2
:10098000E7D74EC05BF04DC05AF04CC059F04BC099
:1009900058F072D703C04EF002C04DF001C04CF0C9
:1009A00000C04BF04EAE0DD05006508A4B1E4C1E70
:1009B0004D1E4E1E4B2AD8B44C2AD8B44D2AD8B45A
:1009C0004E2A3B0E576E9A0E566ECA0E556E546ADC
:1009D0000A0E526E4F50D8B4502AD882EA6A4B0E93
:1009E000E96E4EC05BF04DC05AF04CC059F04BC0A0
:1009F00058F057C05FF056C05EF055C05DF054C06F
:100A00005CF05ADF015000520FE14F28525C0CE0BD
:100A100050500CE00F0B525C01E03BE250BE39D06D
:100A200050BC04D0200E30D0200E501650AA0DD04D
:100A3000509A4F50D8A450060050506E2D0E586E4C
:100A4000D9EC00F05050006E506A4F50525C0BE1F0
:100A50000050506E2E0E586ED9EC00F05050006EC3
:100A6000200E5016000E300E50AA0ED0509A4F5045
:100A7000D8A450060050506E2D0E586ED9EC00F0E0
:100A80005050006E506A300E002600C058F0D9EC6D
:100A900000F0D89257C05BF056C05AF055C059F0DC
:100AA00054C058F05F6A5E6A5D6A0A0E5C6E04DFCD
:100AB00003C057F002C056F001C055F000C054F01A
:100AC000522E8BD71200F86AD09E600ED36ED35090
:100AD000056A046A076A066A096A086A0B6A0A6A8A
:100AE0000D6A0C6AF90E0E6E010E0F6E010E116E7C
:100AF000156A146A136A126A196A186A176A166AFA
:100B00001D6A1C6A1B6A1A6A216A206A1F6A1E6AA9
:100B1000256A246A236A226A356A346A336A7F0E38
:100B2000326E366A426A416A406A7F0E3F6ECD0E6F
:100B3000466ECC0E456E4C0E446E7C0E436ECD0E52
:100B40004A6ECC0E496E4C0E486E7C0E476EC150FC
:100B5000C00B0F09C16E070EB46E08EF00F08CEFEA
:100B600000F0040EF66E000EF76E01EC01F0000EC0
:100B7000016EC250C30B0110C26E200E006E002E1B
:100B8000FED700D00000C282C2B2FED7C3CF04F0AD
:100B9000C4CF05F0040E016EC250C30B0110C26E2B
:100BA000200E006E002EFED700D00000C282C2B21E
:100BB000FED7C3CF06F0C4CF07F005C04CF004C089
:100BC0004BF011EC01F05B6A5A6A200E596E810EEF
:100BD000586E03C05FF002C05EF001C05DF000C05F
:100BE0005CF02CEC01F003C04EF002C04DF001C0EF
:100BF0004CF000C04BF003C052F002C051F001C0F5
:100C000050F000C04FF0566A556A546A890E536E10
:100C1000A5EC01F003C015F002C014F001C013F000
:100C200000C012F007C04CF006C04BF011EC01F010
:100C30005B6A5A6A200E596E810E586E03C05FF0CF
:100C400002C05EF001C05DF000C05CF02CEC01F071
:100C500003C04EF002C04DF001C04CF000C04BF09C
:100C600003C052F002C051F001C050F000C04FF07C
:100C7000566A556A546A890E536EA5EC01F003C09A
:100C800019F002C018F001C017F000C016F00450AF
:100C9000065C086E05500758096ED88219C052F0DC
:100CA00018C051F017C050F016C04FF015C056F0E4
:100CB00014C055F013C054F012C053F052EC02F0BF
:100CC00003C031F002C030F001C02FF000C02EF0A0
:100CD00021C025F020C024F01FC023F01EC022F048
:100CE0001DC025F01CC024F01BC023F01AC022F048
:100CF000D88219C052F018C051F017C050F016C079
:100D00004FF015C056F014C055F013C054F012C087
:100D100053F052EC02F003C01DF002C01CF001C001
:100D20001BF000C01AF04AC05BF049C05AF048C03E
:100D300059F047C058F035C05FF034C05EF033C0A2
:100D40005DF032C05CF02CEC01F0D89242C052F061
:100D500041C051F040C050F03FC04FF003C056F0CA
:100D600002C055F001C054F000C053F052EC02F044
:100D70001DC05BF01CC05AF01BC059F01AC058F0DF
:100D800003C05FF002C05EF001C05DF000C05CF027
:100D90002CEC01F003C04EF002C04DF001C04CF04D
:100DA00000C04BF046C052F045C051F044C050F076
:100DB00043C04FF035C056F034C055F033C054F046
:100DC00032C053F0A5EC01F0D8924EC052F04DC0A5
:100DD00051F04CC050F04BC04FF003C056F002C071
:100DE00055F001C054F000C053F052EC02F003C0C3
:100DF00029F002C028F001C027F000C026F046C04C
:100E000052F045C051F044C050F043C04FF035C0DF
:100E100056F034C055F033C054F032C053F0A5EC56
:100E200001F05B6A5A6A800E596E586E03C05FF01B
:100E300002C05EF001C05DF000C05CF02CEC01F07F
:100E400003C04EF002C04DF001C04CF000C04BF0AA
:100E5000D88203C052F002C051F001C050F000C06F
:100E60004FF042C056F041C055F040C054F03FC072
:100E700053F052EC02F021C05BF020C05AF01FC0CA
:100E800059F01EC058F003C05FF002C05EF001C010
:100E90005DF000C05CF02CEC01F003C02DF002C04E
:100EA0002CF001C02BF000C02AF046C052F045C023
:100EB00051F044C050F043C04FF035C056F034C03C
:100EC00055F033C054F032C053F0A5EC01F003C02C
:100ED0004EF002C04DF001C04CF000C04BF0D89273
:100EE00003C052F002C051F001C050F000C04FF0FA
:100EF0003EC056F03DC055F03CC054F03BC053F0EE
:100F000052EC02F025C05BF024C05AF023C059F027
:100F100022C058F003C05FF002C05EF001C05DF077
:100F200000C05CF02CEC01F003C031F002C030F0E6
:100F300001C02FF000C02EF03AC03EF039C03DF0A5
:100F400038C03CF037C03BF0D89229C052F028C0DE
:100F500051F027C050F026C04FF02DC056F02CC0E5
:100F600055F02BC054F02AC053F052EC02F003C0ED
:100F70004EF002C04DF001C04CF000C04BF0D892D2
:100F800003C052F002C051F001C050F000C04FF059
:100F900031C056F030C055F02FC054F02EC053F081
:100FA00052EC02F003C03AF002C039F001C038F050
:100FB00000C037F03AC04EF039C04DF038C04CF0A8
:100FC00037C04BF0526A516A506A4F6A87EC03F09F
:100FD0001BE33AC05BF039C05AF038C059F037C053
:100FE00058F05F6A5E6A800E5D6E7F0E5C6E2CEC60
:100FF00001F003C03AF002C039F001C038F000C07F
:1010000037F0020E116E02D0010E116ECD0E4E6E33
:10101000CC0E4D6E1C0E4C6E810E4B6E3AC052F0D3
:1010200039C051F038C050F037C04FF087EC03F0B2
:1010300001E208E1140E3A6EAE0E396E1F0E386EE4
:10104000810E376E5B6A5A6A596A890E586E3AC0C9
:101050005FF039C05EF038C05DF037C05CF02CEC5A
:1010600001F003C04EF002C04DF001C04CF000C0D2
:101070004BF003C052F002C051F001C050F000C06C
:101080004FF0566A556A200E546E810E536EA5ECD1
:1010900001F003C04EF002C04DF001C04CF000C0A2
:1010A0004BF0C2EF03F002C00BF001C00AF0010EDA
:1010B0003626596E5A6EC8EC00F0200E586ED9ECE8
:1010C00000F0010EE96E09C04CF008C04BF0DFECF7
:1010D00003F0060EF66E000EF76E01EC01F0200E26
:1010E000586ED9EC00F0890EE96E1DC04EF01CC0A0
:1010F0004DF01BC04CF01AC04BF0020E4F6E23DCBB
:10110000080EF66E000EF76E01EC01F0010E596E3E
:10111000020E5A6EC8EC00F0200E586ED9EC00F0AA
:10112000010EE96E0BC04CF00AC04BF0DFEC03F08F
:101130000A0EF66E000EF76E01EC01F0200E586EEE
:10114000D9EC00F0890EE96E3AC04EF039C04DF08E
:1011500038C04CF037C04BF0020E4F6EA3EC04F0D9
:101160000C0EF66E000EF76E01EC01F0640E596E77
:101170002AEC00F00E0EF66E000EF76E01EC01F098
:1011800019C04EF018C04DF017C04CF016C04BF00F
:1011900015C052F014C051F013C050F012C04FF0FF
:1011A00087EC03F031E3D88215C052F014C051F03F
:1011B00013C050F012C04FF019C056F018C055F0CF
:1011C00017C054F016C053F052EC02F003C031F0D7
:1011D00002C030F001C02FF000C02EF00BC002F0B2
:1011E0000AC001F00232013202320132023201C081
:1011F000BEFF02320230300B006EBD50CF0B00102C
:10120000BD6E93928A8203D093928A92BE6A15C071
:101210004EF014C04DF013C04CF012C04BF019C08A
:1012200052F018C051F017C050F016C04FF087ECC4
:1012300003F031E3D88219C052F018C051F017C042
:1012400050F016C04FF015C056F014C055F013C042
:1012500054F012C053F052EC02F003C031F002C05F
:1012600030F001C02FF000C02EF00BC002F00AC019
:1012700001F00232013202320132023201C0BBFF00
:1012800002320230300B006EBA50CF0B0010BA6E33
:1012900093948A8403D093948A94BB6A15C04EF0C9
:1012A00014C04DF013C04CF012C04BF019C052F0F6
:1012B00018C051F017C050F016C04FF087EC03F083
:0A12C00002E1BB6ABE6A53D40300CA
:020000040030CA
:0E0000003FC83E1E0087A1000FC00FE00F405A
:00000001FF
;PIC18F4550
;CRC=5646  CREATED="18-ene.-21 15:16"
