:10000000C7EF03F00C004144433A2025344C7500FF
:10001000653D20256600EA6A1E0EE96EEF500EE08F
:10002000010E016E006A002EFED7012EFBD74A0E8C
:10003000006E002EFED700D0EF2EF2D7120025382A
:10004000F00B006E0F0E8C1400108C6E00008C8074
:1000500000D08C9012008350006E00380F0B016EA0
:1000600012000F0E9514F009956E8C8400008C80A0
:100070000000F1DF01C025F08C9000008C800000B2
:10008000EADF01C024F08C900F0E9514956E253890
:10009000006EF00E001600502410016E55EF00F0B7
:1000A0009590959295948C92DCD701C024F001BE76
:1000B000FBD78C9222B08C8200008C9400008C9034
:1000C0002338246E0F0E241624C025F0B8DF2350E9
:1000D0000F0B246E256EB3DF1200280E116E0C0E6E
:1000E000126E010E136E060E146E8C908C928C9410
:1000F0000F0E9514956E9590959295940F0E1E6E19
:100100008ADF010E106E1050030808E3030E256EFF
:1001100096DF050E1E6E7FDF102AF5D7020E256EC4
:100120008EDF050E1E6E77DF106A105003080FE396
:10013000036A1050110FE96E000E0320EA6EEFCF34
:1001400015F0226A15C023F0ABDF102AEED7E5EFD9
:1001500003F01F2C01D003D0400E206E01D0206A86
:10016000010E1E5C202620508009216E226A236E1B
:1001700097DF12001D50070A07E00B0A0AE0060A83
:1001800010E0020A14E018D0010E1E6E1F6EE1DFAF
:1001900018D0226A010E236E83DF020E1E6E3BDF33
:1001A00010D0010E1E6E020E1F6ED3DF0AD0226A1F
:1001B000100E236E75DF05D0010E226E1DC023F0D8
:1001C0006FDF12000900F5520CE0F6CF10F0F7CF08
:1001D00011F0F5CF1DF0CEDF10C0F6FF11C0F7FF14
:1001E000F1D7EAEF03F08E0E006E11C001F010C0DF
:1001F00002F0036A015209E102C001F0026A080E2E
:10020000005E015202E1006A08D0D89001BE04D01D
:10021000023601360006F9D7019E0FEF04F01D509B
:10022000D8B471D0006E2150D8B46DD0002604E34C
:10023000810E002668E204D07F0E005E64E363E076
:100240001EC025F02250251A1E8E228E2050240218
:10025000F4CF27F01F502302F4CF03F0F3CF26F0A2
:100260002402F3502726F4502622000E03222050A9
:100270002302F3502726F4502622000E026A03229E
:1002800002221E502402F3502626F4500322000EB0
:1002900002221E502302F3500326F4500222000EC5
:1002A000016A012220502202F3502626F450032234
:1002B000000E022201221F502202F3500326F450A6
:1002C0000222000E01221E502202F3500226F45098
:1002D0000122002A01BE05D0263603360236013639
:1002E0000006000E26AE0AD0032A02220122015087
:1002F00005E1025003E1035001E1002A25BE018E11
:1003000025AE019E04D0006A016A026A036A1200E7
:100310001450D8B4A5D0206E1850D8B4A1D0205E07
:1003200005E37F0E2026D8B09BD006D0810E205E3C
:10033000D8A096D0D8B494D020C000F0016A026A48
:10034000036A1F6A15C01EF01E8E16C01DF017C06E
:100350001CF0190E206E1B501C5E0DE2010E1D5E7E
:100360000AE21E5E08E21F5E06E21F2A1E2A1D2AFE
:100370001B501C2628D01A501D5E12E2010E1E5E74
:100380000FE21F5E0DE21F2A1E2A1A501D261B5067
:100390001C2619E31D2A17E11E2A15E11F2A13D076
:1003A000195080091E5E0EE2010E1F5E0BE21F2A2D
:1003B000195080091E261A501D26E9E31E2AE7E17E
:1003C0001F2AE5D70380202E01D00BD0D8901C36F1
:1003D0001D361E361F36D8900336023601362136BA
:1003E000BAD721A006D0D89001320232033221328E
:1003F00002D0000635E021BE1ED0D8901C361D3636
:100400001E361F361B501C5E07E2010E1D5E04E205
:100410001E5E02E21F5E1AE31A501D5E05E2010E27
:100420001E5E02E21F5E12E3195080091E5E03E2A7
:10043000010E1F5E0BE3032A09E1022A07E1012AEC
:1004400005E1002A0DE001320232033215C020F02E
:100450001950201A20AE02D0018E06D0019E04D081
:10046000006A016A026A036A34EF04F00900F6CFF9
:1004700011F0F7CF12F0F5CF1DF07CDE11C0F6FFC2
:1004800012C0F7FF102EF2D71200EACF18F0E9CF12
:1004900017F01138F009136E1326E20F146E320FA5
:1004A000166E11500F0B142614261626E90F156E22
:1004B0001526152610380F0B152616261536163656
:1004C000161E163610500F0B16261336070E126E18
:1004D0000A0E15061626FDE314061526FDE313067F
:1004E0001426FDE312061326FDE3EA6A120EE96EF6
:1004F000070E1714179CE926000EEA22E950160889
:1005000003E1EA5201E1178CEF50006E08E117BCDD
:1005100006D017B813D017B602D0200E03D0178616
:100520001798300E0026EACF11F0E9CF10F000C086
:100530001DF020DE11C0EAFF10C0E9FFEE5017AC3D
:10054000DDD74EEF04F01D50B6081D6E036A1EC0C5
:1005500021F01E8ED8901E321F322032033202321A
:10056000013200321D2EF6D721AE0BD0001E011E27
:10057000021E031E002AD8B4012AD8B4022AD8B415
:10058000032A31EF03F0D8B203D0EA6A250EE96EF0
:10059000006A016A026A036A256A266A276A286A6B
:1005A00024502310221021102CE0200E296ED89008
:1005B0001D361E361F362036253626362736283677
:1005C0002450285C08E12350275C05E12250265C7A
:1005D00002E12150255C0FE32150255E2250D8A076
:1005E000223C265E2350D8A0233C275E2450D8A06E
:1005F000243C285ED8800036013602360336292E88
:10060000D6D725C0EFFF26C0ECFF27C0ECFF28C0DF
:10061000ECFF1200E950156E1450176E19E013C06C
:1006200020F012C01FF011C01EF010C01DF0246A8F
:10063000236A200E226E820E216EF1DD03C013F0BC
:1006400002C012F001C011F000C010F0172EE7D761
:1006500013C020F012C01FF011C01EF010C01DF01A
:1006600072D703C013F002C012F001C011F000C035
:1006700010F013AE0DD01506158A101E111E121E95
:10068000131E102AD8B4112AD8B4122AD8B4132AA7
:100690003B0E1C6E9A0E1B6ECA0E1A6E196A0A0E5B
:1006A000176E1450D8B4152AD882EA6A100EE96E73
:1006B00013C020F012C01FF011C01EF010C01DF0BA
:1006C0001CC024F01BC023F01AC022F019C021F076
:1006D0005ADF015000520FE11428175C0CE015504E
:1006E0000CE00F0B175C01E037E215BE35D015BCEE
:1006F00004D0200E2DD0200E151615AA0CD0159A58
:100700001450D8A415060050156E2D0E1D6E32DD46
:100710001550006E156A1450175C0AE10050156EF2
:100720002E0E1D6E27DD1550006E200E1516000EC4
:10073000300E15AA0DD0159A1450D8A415060050E5
:10074000156E2D0E1D6E16DD1550006E156A300EDD
:10075000002600C01DF00EDDD8921CC020F01BC08A
:100760001FF01AC01EF019C01DF0246A236A226A05
:100770000A0E216E08DF03C01CF002C01BF001C08E
:100780001AF000C019F0172E8FD767EF04F0F86A3F
:10079000D09E056A046A076A066A0B6A0A6A096AD1
:1007A000086A0F6A0E6A0D6A0C6AC150C00B0F0905
:1007B000C16E070EB46EC050C00B0709C06EC08E6C
:1007C000C280C150C00BC16E88D4040EF66E000EFC
:1007D000F76EF8D4000E016EC250C30B0110C26E4A
:1007E000C282C2B2FED7C3CF04F0C4CF05F0200E40
:1007F000006E002EFED700D00000040E016EC25025
:10080000C30B0110C26EC282C2B2FED7C3CF06F0C4
:10081000C4CF07F005C011F004C010F0E4D4206A82
:100820001F6A200E1E6E810E1D6E03C024F002C0D2
:1008300023F001C022F000C021F0F1DC03C013F06E
:1008400002C012F001C011F000C010F003C017F098
:1008500002C016F001C015F000C014F01B6A1A6A3D
:10086000196A890E186E54D503C00BF002C00AF045
:1008700001C009F000C008F0010E1E6E1F6E69DC99
:10088000060EF66E000EF76E050E106EEFDD010E11
:10089000E96E05C011F004C010F0F7D5030E1E6E0E
:1008A000020E1F6E56DC100EF66E000EF76E030E73
:1008B000106EDCDD890EE96E0BC013F00AC012F079
:1008C00009C011F008C010F0020E146EA3D682D732
:0208D000030023
:020000040030CA
:0E0000003FC0381E0087A1000FC00FE00F4068
:00000001FF
;PIC18F4550
;CRC=183C  CREATED="09-ene.-21 21:34"
