:1000000002EF00F0F86AD09E600ED36ED350056AFE
:10001000046A076A066A116A106A010E156EC150F9
:10002000C00B0F09C16E070EB46EF90E126E010EF1
:10003000136E135C016E0134006E00360036F80E4C
:10004000001600500509CA6E12C0CBFF94948B9421
:100050000C0EBD6EB76AB66A94928B92BA6EC1509E
:10006000C00BC16EC050C00B0709C06EC08EC280ED
:10007000000E016EC250C30B0110C26E200E006E46
:10008000002EFED700D00000C282C2B2FED7C3CF7E
:1000900004F0C4CF05F0040E016EC250C30B011072
:1000A000C26E200E006E002EFED700D00000C2826D
:1000B000C2B2FED7C3CF06F0C4CF07F00450065C2F
:1000C0000E6E055007580F6E0750055C20E303E1E4
:1000D0000450065C1CE20650045C0E6E0750055886
:1000E0000F6E0FC002F00EC001F002320132023278
:1000F0000132023201C0BEFF02320230300B006E0C
:10010000BD50CF0B0010BD6E93928A8203D09392A4
:100110008A92BE6A0550075C20E303E10650045C46
:100120001CE20450065C0E6E055007580F6E0FC09F
:1001300002F00EC001F0023201320232013202320C
:1001400001C0BBFF02320230300B006EBA50CF0B41
:100150000010BA6E93948A8403D093948A94BB6AF5
:100160000650045C05E10750055C02E1BB6ABE6A0B
:040170007FD7030032
:020000040030CA
:0E0000003FC83E1E0087A1000FC00FE00F405A
:00000001FF
;PIC18F4550
;CRC=062E  CREATED="08-ene.-21 22:52"
