:1000000002EF00F0F86AD09E600ED36ED350056AFE
:10001000046A010E116EC150C00B0F09C16E070EAC
:10002000B46EF90E0E6E010E0F6E0F5C016E013490
:10003000006E00360036F80E001600500509CA6E34
:100040000EC0CBFF94948B940C0EBD6EB76AB66A4B
:1000500094928B92BA6EC150C00BC16EC050C00B4F
:100060000709C06EC08EC2809480106A82B0102AC8
:10007000102C0AD0948082B0FDD7112C03D0020E30
:10008000116E02D0010E116E112C29D0000E016EDE
:10009000C250C30B0110C26E200E006E002EFED7A0
:1000A00000D00000C282C2B2FED7C3CF08F0C4CFD6
:1000B00009F009C002F008C001F002320132023238
:1000C0000132023201C0BEFF02320230300B006E3C
:1000D000BD50CF0B0010BD6E93928A8203D09392D5
:1000E0008A92BE6A1150020829E1040E016EC250C4
:1000F000C30B0110C26E200E006E002EFED700D082
:100100000000C282C2B2FED7C3CF08F0C4CF09F04C
:1001100009C002F008C001F002320132023201329D
:10012000023201C0BBFF02320230300B006EBA5007
:10013000CF0B0010BA6E93948A8403D093948A9460
:06014000BB6A92D7030028
:020000040030CA
:0E0000003FC83E1E0087A1000FC00FE00F405A
:00000001FF
;PIC18F4550
;CRC=389E  CREATED="07-ene.-21 22:01"
