:10000000ACEF02F0010EEA6EB50EE96EEF500EE0B5
:10001000010E016E006A002EFED7012EFBD74A0E9C
:10002000006E002EFED700D0EF2EF2D71200949C67
:100030008B8C94988B98949A8B9A93908A809392B5
:100040008A9293948A9493968A9693988A98939A8C
:100050008A9A939C8A9C939E8A9E050E0101B56F95
:100060000001D0DF949C8B9C050E0101B56F00014F
:10007000C9DF949C8B8C1200949C8B8C94988B98E9
:10008000949A8B9A93908A9093928A9293948A846A
:1000900093968A8693988A98939A8A9A939C8A9C34
:1000A000939E8A9E050E0101B56F0001ABDF949C03
:1000B0008B9C050E0101B56F0001A4DF949C8B8C15
:1000C0008AEF00F0949C8B8C94988B98949A8B9ADE
:1000D00093908A9093928A9293948A8493968A8634
:1000E00093988A88939A8A8A939C8A9C939E8A9EE4
:1000F000050E0101B56F000185DF949C8B9C050EF8
:100100000101B56F00017EDF949C8B8C8BEF00F0BA
:100110008EDFB2D7D7D7EAEF02F0949C8B8C9498FD
:100120008B88949A8B9A0101BDC1E9FFBEC1EAFF99
:10013000EF2C03D093908A8002D093908A90010E86
:10014000BD25E96E000EBE21EA6EEF2C03D093921E
:100150008A8202D093928A92020EBD25E96E000E29
:10016000BE21EA6EEF2C03D093948A8402D093943C
:100170008A94030EBD25E96E000EBE21EA6EEF2CB7
:1001800003D093968A8602D093968A96040EBD2554
:10019000E96E000EBE21EA6EEF2C03D093988A8898
:1001A00002D093988A98050EBD25E96E000EBE21F7
:1001B000EA6EEF2C03D0939A8A8A02D0939A8A9A95
:1001C000060EBD25E96E000EBE21EA6EEF2C03D0AF
:1001D000939C8A8C02D0939C8A9C070EBD25E96E65
:1001E000000EBE21EA6EEF2C03D0939E8A8E02D0C1
:1001F000939E8A9E949C8B9C949C8B8C00015CEFBC
:1002000002F0200E0101B55DC20FD8B04FD13E0FF4
:10021000000161EF02F00101BD6B010EBC6FBB6B11
:10022000BA6BB96BB86BB76BB66F40D10101BD6BE0
:10023000010EBC6FBB6BBA6BB96BB86BB76FB66BAB
:1002400035D10101BD6B010EBC6FBB6BBA6BB96BD5
:10025000B86BB76FB66F2AD10101BD6B010EBC6FD1
:10026000BB6BBA6BB96BB86FB76BB66B1FD10101C3
:10027000BD6B010EBC6FBB6BBA6BB96BB86FB76B64
:10028000B66F14D10101BD6B010EBC6FBB6BBA6BB5
:10029000B96BB86FB76FB66B09D10101BD6B010EB9
:1002A000BC6FBB6BBA6BB96BB86FB76FB66FFED074
:1002B0000101BD6B010EBC6FBB6BBA6BB96FB86B44
:1002C000B76BB66BF3D00101BD6B010EBC6FBB6B9E
:1002D000BA6BB96FB86BB76BB66FE8D00101BD6B85
:1002E000010EBC6FBB6BBA6BB96FB86BB76FB66BF7
:1002F000DDD00101BD6B010EBC6FBB6BBA6BB96F7A
:10030000B86BB76FB66FD2D00101BD6B010EBC6F79
:10031000BB6BBA6BB96FB86FB76BB66BC7D0010167
:10032000BD6B010EBC6FBB6BBA6BB96FB86FB76BAF
:10033000B66FBCD00101BD6B010EBC6FBB6BBA6B5D
:10034000B96FB86FB76FB66BB1D00101BD6B010E5D
:10035000BC6FBB6BBA6BB96FB86FB76FB66FA6D017
:100360000101BD6B010EBC6FBB6BBA6FB96BB86B93
:10037000B76BB66F9BD00101BD6B010EBC6FBB6B41
:10038000BA6FB96BB86BB76FB66B90D00101BD6B2C
:10039000010EBC6FBB6BBA6FB96BB86BB76FB66B46
:1003A00085D00101BD6B010EBC6FBB6BBA6FB96B21
:1003B000B86FB76BB66B7AD00101BD6B010EBC6F25
:1003C000BB6BBA6FB96BB86FB76BB66F6FD001010B
:1003D000BD6B010EBC6FBB6BBA6FB96BB86FB76FFB
:1003E000B66B64D00101BD6B010EBC6FBB6BBA6F05
:1003F000B96BB86FB76FB66F59D00101BD6B010E05
:10040000BC6FBB6BBA6FB96FB86BB76BB66B4ED0C6
:100410000101BD6B010EBC6FBB6BBA6FB96FB86BDE
:10042000B76BB66F43D00101BD6B010EBC6FBB6BE8
:10043000BA6FB96FB86BB76FB66B38D00101BD6BCF
:10044000010EBC6FBB6BBA6FB96FB86BB76FB66F8D
:100450002DD00101BD6BBC6B010EBB6FBA6BB96FC8
:10046000B86FB76FB66F22D00101BD6BBC6B010EC8
:10047000BB6FBA6BB96BB86BB76BB66B17D00101BA
:10048000BD6B010EBC6FBB6BBA6FB96BB86FB76B4E
:10049000B66B0CD00101BD6B010EBC6FBB6BBA6FAC
:1004A000B96BB86FB76BB66B01D00101010EBE6FAF
:1004B000B60EBD6F000131D6B60E016E010E026E92
:1004C0001200E824F76AF736DD0FF66E040EF72205
:1004D0000A00F550FA6E0800F550F96E6804AA0497
:1004E000AA04AA04AA04AA04AA04AA04AA04AA049C
:1004F000AA04AA04AA04AA04AA045204AA04AA04E4
:10050000AA04AA04AA04AA04AA04AA04AA04AA047B
:10051000AA04AA04AA04AA04AA04AA04AA04160201
:100520002C02420258026E0284029A02B002C602F3
:10053000DC02F20208031E0334034A03600376035D
:100540008C03A203B803CE03E403FA0310042604C9
:100550003C047E04AA049404F86AD09E600ED36E14
:10056000D350010E056E0D6A0C6A176A010E166EE5
:10057000E16BE06B0101AB6B010EAA6FAD6BAC6B75
:10058000AF6BAE6BC150C00B0F09C16E070EB46EDE
:10059000F90E0E6E010E0F6E0F5C016E0134006ECF
:1005A00000360036F80E001600500509CA6E0EC05F
:1005B000CBFF94948B940C0EBD6EB76AB66AC15093
:1005C000C00BC16EC050C00B0709C06EC08EC28088
:1005D00000019ED5000E016EC250C30B0110C26E09
:1005E000200E006E002EFED700D00000C282C2B2E4
:1005F000FED7C3CF08F0C4CF09F0040E016EC2507D
:10060000C30B0110C26E200E006E002EFED700D06C
:100610000000C282C2B2FED7C3CF0AF0C4CF0BF033
:1006200008500A5C0101B06F09500B58B16F0950B6
:100630000B5C1BE303E10A50085C17E20001F7DCE6
:10064000700E0101B56F0001DCDD6D0E0101B56FAB
:100650000001D7DD730E0101B56F0001D2DDC80EB8
:100660000101B56F0001CEDC01010B50095C1BE3F9
:1006700003E108500A5C17E20001D9DC730E0101A6
:10068000B56F0001BEDD6D0E0101B56F0001B9DD72
:10069000700E0101B56F0001B4DDC80E0101B56F28
:1006A0000001B0DC01010001E15303E1E051130856
:1006B00015E2E16BE06B0101B46BB45163080DE32B
:1006C000D890B435036A180FE96E000E0320EA6E65
:1006D000EC6AED52EF6AB42BF0D700017BD7030030
:020000040030CA
:0E00000000C81E1E008781000FC00FE00F40D9
:00000001FF
;PIC18F4520
;CRC=5F62  CREATED="07-ene.-21 15:43"
