:1000000002EF00F0F86AD09E600ED36ED350056AFE
:10001000046AC150C00B0F09C16E070EB46EF90E11
:100020000E6E010E0F6E0F5C016E0134006E003615
:100030000036F80E001600500509CA6E0EC0CBFF40
:1000400094948B940C0EBD6EB76AB66A94928B92A0
:10005000BA6EC150C00BC16EC050C00B0709C06E54
:10006000C08EC280000E016EC250C30B0110C26E62
:10007000020E006E002EFED700D00000C282C2B277
:10008000FED7C3CF08F0C4CF09F0040E016EC250F2
:10009000C30B0110C26E020E006E002EFED700D000
:1000A0000000C282C2B2FED7C3CF0AF0C4CF0BF0A9
:1000B0000B50095C39E303E108500A5C35E2939088
:1000C0008A80020E006E002EFED700D0000008507D
:1000D0000A5C0C6E09500B580D6E0BC002F00AC082
:1000E00001F00232013202320132023201C0BEFF9F
:1000F00002320230300B006EBD50CF0B0010BD6ECF
:1001000009C002F008C001F00232013202320132AD
:10011000023201C0BBFF02320230300B006EBA5017
:10012000CF0B0010BA6E02D093908A9009500B5CEE
:1001300007E303E10A50085C03E293928A8202D04B
:0801400093928A928FD703000D
:020000040030CA
:0E0000003FC83E1E0087A1000FC00FE00F405A
:00000001FF
;PIC18F4550
;CRC=360F  CREATED="07-ene.-21 16:14"
