:1000000002EF00F0F86AD09E600ED36ED350056AFE
:10001000046AC150C00B0F09C16E070EB46EF90E11
:10002000066E010E076E075C016E0134006E00362D
:100030000036F80E001600500509CA6E06C0CBFF48
:1000400094948B940C0EBD6EB76AB66AC150C00B07
:10005000C16EC050C00B0709C06EC08EC280000EBA
:10006000016EC250C30B0110C26E200E006E002E36
:10007000FED700D00000C282C2B2FED7C3CF04F0C8
:10008000C4CF05F005C002F004C001F00232013215
:1000900002320132023201C0BEFF02320230300BA6
:1000A000006EBD50CF0B0010BD6E94948B94959A4A
:1000B000959C959E4C0EBD6EB76AB66AD0D703006C
:020000040030CA
:0E00000000C81E1E008781000FC00FE00F40D9
:00000001FF
;PIC18F4520
;CRC=2472  CREATED="05-ene.-21 11:54"
