:1000000002EF00F0F86AD09E600ED36ED350056AFE
:10001000046AC150C00B0F09C16E070EB46EF90E11
:100020000E6E010E0F6E0F5C016E0134006E003615
:100030000036F80E001600500509CA6E0EC0CBFF40
:1000400094948B940C0EBD6EB76AB66A94928B92A0
:10005000BA6EC150C00BC16EC050C00B0709C06E54
:10006000C08EC280000E016EC250C30B0110C26E62
:10007000200E006E002EFED700D00000C282C2B259
:10008000FED7C3CF08F0C4CF09F009C002F008C002
:1000900001F00232013202320132023201C0BEFFEF
:1000A00002320230300B006EBD50CF0B0010BD6E1F
:1000B000040E016EC250C30B0110C26E200E006E02
:1000C000002EFED700D00000C282C2B2FED7C3CF3E
:1000D0000AF0C4CF0BF008500A5C0C6E09500B58A4
:1000E0000D6E0B50095C07E303E108500A5C03E264
:1000F00093908A8002D093908A9009500B5C07E31A
:1001000003E10A50085C03E293928A8202D0939240
:060110008A92A8D703004B
:020000040030CA
:0E0000003FC83E1E0087A1000FC00FE00F405A
:00000001FF
;PIC18F4550
;CRC=E7D1  CREATED="07-ene.-21 15:52"
