:10000000D1EF02F0D951D8B471D0006EDD51D8B41F
:100010006DD0002604E3810E002668E204D07F0E36
:10002000005E64E363E0DAC0E1F0DE51E11BDA8FE9
:10003000DE8FDC51E003F4CFE3F0DB51DF03F4CFDC
:1000400003F0F3CFE2F0E003F350E327F450E223B0
:10005000000E0322DC51DF03F350E327F450E223C8
:10006000000E026A03220222DA51E003F350E22773
:10007000F4500322000E0222DA51DF03F35003266C
:10008000F4500222000E016A0122DC51DE03F3501B
:10009000E227F4500322000E02220122DB51DE038C
:1000A000F3500326F4500222000E0122DA51DE033F
:1000B000F3500226F4500122002A01BE05D0E23797
:1000C0000336023601360006000EE2AF0AD0032ADC
:1000D00002220122015005E1025003E1035001E137
:1000E000002AE1BF018EE1AF019E04D0006A016ADF
:1000F000026A036A12008E0E006ED551005ED6C0F1
:1001000002F0D7C001F0028E005209E0D8900252EE
:1001100002E1015204E002320132002EF7D7D6AFDD
:1001200005D0011E021E012AD8B4022A12008E0E2A
:10013000006ECEC001F0CDC002F0036A015209E1A9
:1001400002C001F0026A080E005E015202E1006A7C
:1001500008D0D89001BE04D0023601360006F9D787
:10016000019E4BEF03F0800ED8B2DC1BE16BE26B1B
:10017000D8C0E0F0DC51E01BD751D8B4DCD0DF6F41
:10018000006EDB51D8B4E0D0DF5FD8B481D03DE35E
:10019000DCC0E5F0E58FDDC0E4F0DEC0E3F0E26B4B
:1001A000D890E533E433E333E233DF2FF8D7E0AF21
:1001B00003D0E181DDD0E191DF91E189EA6ADA0ED5
:1001C000E96EE9D0E199E0BF0AD0DFA113D0E533B1
:1001D000E433E333E233002AD8B4C5D00BD0E5BF13
:1001E0000CD0D890E237E337E437E5370006D8B4CF
:1001F000BAD0F5D7E18D6BD0E19DD8C0E0F0D8AF93
:1002000002D0E58FA9D0E59FA7D0DBC0DFF0DBC02F
:1002100000F0D751DF5FD8C0E5F0E58FD9C0E4F03A
:10022000DAC0E3F0E26BD890E533E433E333E23352
:10023000DF2FF8D7E0AF03D0E1839AD0E193DF91CD
:10024000E18BEA6ADE0EE96EA6D0E19BE0BF0AD040
:10025000DFA113D0E533E433E333E233002AD8B42B
:1002600082D00BD0E5BF0CD0D890E237E337E4372B
:10027000E5370006D8B477D0F5D7E18F28D0E19FD5
:10028000DCC0E0F0DCAF02D0E58F66D0E59F64D043
:10029000DCC0E5F0E58FDDC0E4F0DEC0E3F0E0AF08
:1002A00004D0E59FE18564D0E195E26BDF91EA6AD5
:1002B000DA0EE96E70D0E0BF1CD0D8C0E0F0DFA14C
:1002C00006D0E533E433E333E233002A4CE0E2AF17
:1002D0000BD0E32B09E1E42B07E1E52B05E1E53346
:1002E000E433E333002A3FE0E1BD86D7E1BFC7D75F
:1002F0001CD0800EE51BE5AF04D03AD0DCC0E0F0A6
:100300000AD0D8C0E0F0E55306E1E45304E1E3533A
:1003100002E1006A21D0E5BF08D0D890E237E33788
:10032000E437E537002EF7D71ED0E0AF02D0E58FD7
:1003300013D0E59F11D0DBC000F0DCC0E5F0DDC0DC
:10034000E4F0DEC0E3F008D0D7C000F0D8C0E5F09C
:10035000D9C0E4F0DAC0E3F0E5C001F0E4C002F097
:10036000E3C003F034D0006A016A026A036A2FD046
:10037000E26BE31FE41FE51FE21FE22B05E1E32B25
:1003800003E1E42B01E1E52BE1B115D7E1B356D749
:10039000E1B58AD7B3D7EF50E32705E3E42B03E1B8
:1003A000E52BD8B4DF81ED52EF50E42703E3E52BD2
:1003B000D8B4DF81ED52EF50EFBE01D0800AE527BF
:1003C000D8B0DF81E1B9FED6E1BB3FD774D71200C8
:1003D000D151D8B4A5D0DD6FD551D8B4A1D0DD5F4F
:1003E00005E37F0EDD27D8B09BD006D0810EDD5F00
:1003F000D8A096D0D8B494D0DDC000F0016A026ACB
:10040000036ADC6BD2C0DBF0DB8FD3C0DAF0D4C080
:10041000D9F0190EDD6FD851D95F0DE2010EDA5F08
:100420000AE2DB5F08E2DC5F06E2DC2BDB2BDA2B87
:10043000D851D92728D0D751DA5F12E2010EDB5FFD
:100440000FE2DC5F0DE2DC2BDB2BD751DA27D85132
:10045000D92719E3DA2B17E1DB2B15E1DC2B13D0BD
:10046000D6518009DB5F0EE2010EDC5F0BE2DC2B74
:10047000D6518009DB27D751DA27E9E3DB2BE7E107
:10048000DC2BE5D70380DD2F01D00BD0D890D937F6
:10049000DA37DB37DC37D890033602360136DE3701
:1004A000BAD7DEA106D0D890013202320332DE3351
:1004B00002D0000635E0DEBF1ED0D890D937DA373B
:1004C000DB37DC37D851D95F07E2010EDA5F04E28F
:1004D000DB5F02E2DC5F1AE3D751DA5F05E2010E6F
:1004E000DB5F02E2DC5F12E3D6518009DB5F03E2EF
:1004F000010EDC5F0BE3032A09E1022A07E1012A6E
:1005000005E1002A0DE0013202320332D2C0DDF0F3
:10051000D651DD1BDDAF02D0018E06D0019E04D086
:10052000006A016A026A036A1200CCC0D3F0D0519B
:10053000D31BD3AF05D0D894D890CCBFD8802FD0C0
:10054000CCC0D3F0CFC0D4F0CB51D45F06E0D3AF52
:1005500026D0D850010AD86E22D0D0C0D4F0CC51C9
:10056000D45F06E0D3AF1BD0D850010AD86E17D0A5
:10057000D1C0D4F0CD51D45F06E0D3AF10D0D85065
:10058000010AD86E0CD0D2C0D4F0CE51D45F06E0B0
:10059000D3AF05D0D850010AD86E01D0D8901DEF46
:1005A00006F0F86AD09E600ED36ED350076A066AD2
:1005B000196A186A176A7F0E166E6D6A6C6A6B6A22
:1005C0006A6AC150C00B0F09C16E070EB46EF90EF6
:1005D000086E010E096E095C016E0134006E003672
:1005E0000036F80E001600500509CA6E08C0CBFF91
:1005F00094948B940C0EBD6EB76AB66AC150C00B52
:10060000C16EC050C00B0709C06EC08EC280000E04
:10061000016EC250C30B0110C26E200E006E002E80
:10062000FED700D00000C282C2B2FED7C3CF04F012
:10063000040E016EC250C30B0110C26E200E006E7C
:10064000002EFED700D00000C282C2B2FED7C3CFB8
:1006500005F06DC0DCF06CC0DBF06BC0DAF06AC096
:10066000D9F0E06BDF6BDE6B810EDD6FCBDC03C09E
:10067000D8F002C0D7F001C0D6F000C0D5F03BDD05
:100680001A0E0124E96E000E0220EA6E0450055C89
:10069000CE6BCD6F4CD500C0EFFF01C0ECFF02C0A8
:1006A000ECFF03C0ECFF6DC0DCF06CC0DBF06BC096
:1006B000DAF06AC0D9F0E06BDF6BDE6B810EDD6FC4
:1006C000A1DC03C0D8F002C0D7F001C0D6F000C052
:1006D000D5F011DD1A0E0124E96E000E0220EA6E3B
:1006E000EFCFCBF0ECCFCCF0ECCFCDF0ECCFCEF029
:1006F000C5C0DCF0C4C0DBF0C3C0DAF0C2C0D9F0C2
:1007000019C0E0F018C0DFF017C0DEF016C0DDF051
:1007100079DCEACFD0F0E9CFCFF0D892C9C0DAF0D7
:10072000C8C0D9F0C7C0D8F0C6C0D7F003C0DEF04B
:1007300002C0DDF001C0DCF000C0DBF014DDD0C091
:10074000EAFFCFC0E9FFCEC0DCF0CDC0DBF0CCC00B
:10075000DAF0CBC0D9F003C0E0F002C0DFF001C096
:10076000DEF000C0DDF04EDC03C0CEF002C0CDF004
:1007700001C0CCF000C0CBF0C1C0D4F0C0C0D3F0F9
:10078000BFC0D2F0BEC0D1F019C0D8F018C0D7F0A9
:1007900017C0D6F016C0D5F01BDEEACFD2F0E9CFF5
:1007A000D1F0D892CEC0DAF0CDC0D9F0CCC0D8F01C
:1007B000CBC0D7F003C0DEF002C0DDF001C0DCF03A
:1007C00000C0DBF0D0DCD2C0EAFFD1C0E9FF03C03B
:1007D0000DF002C00CF001C00BF000C00AF0D8828E
:1007E0006DC0DAF06CC0D9F06BC0D8F06AC0D7F039
:1007F000DE6BDD6BDC6B7F0EDB6FB5DC03C0CEF038
:1008000002C0CDF001C0CCF000C0CBF003C0DCF0E2
:1008100002C0DBF001C0DAF000C0D9F0E06BDF6BA2
:10082000DE6B810EDD6F02EC00F003C0D8F002C079
:10083000D7F001C0D6F000C0D5F05DDC1A0E01245F
:10084000E96E000E0220EA6EEFCFCBF0ECCFCCF0D9
:10085000ECCFCDF0ECCFCEF0C1C0D4F0C0C0D3F01F
:10086000BFC0D2F0BEC0D1F019C0D8F018C0D7F0C8
:1008700017C0D6F016C0D5F0ABDDDC6BDB6B800E9D
:10088000DA6FD96F03C0E0F002C0DFF001C0DEF024
:1008900000C0DDF002EC00F003C0D2F002C0D1F0E5
:1008A00001C0D0F000C0CFF0EACFD4F0E9CFD3F050
:1008B000D88203C0DAF002C0D9F001C0D8F000C07D
:1008C000D7F0C9C0DEF0C8C0DDF0C7C0DCF0C6C0DC
:1008D000DBF049DCD4C0EAFFD3C0E9FFCEC0DCF0D6
:1008E000CDC0DBF0CCC0DAF0CBC0D9F003C0E0F073
:1008F00002C0DFF001C0DEF000C0DDF002EC00F06D
:1009000003C011F002C010F001C00FF000C00EF0E3
:10091000D8826DC0DAF06CC0D9F06BC0D8F06AC074
:10092000D7F0DE6BDD6BDC6B800EDB6F1CDC03C095
:10093000CEF002C0CDF001C0CCF000C0CBF003C0BF
:10094000DCF002C0DBF001C0DAF000C0D9F0E06BEF
:10095000DF6BDE6B810EDD6F02EC00F003C0D8F0C0
:1009600002C0D7F001C0D6F000C0D5F07BEC00F09B
:100970001A0E0124E96E000E0220EA6EEFCFCBF0D2
:10098000ECCFCCF0ECCFCDF0ECCFCEF0C1C0D4F0BA
:10099000C0C0D3F0BFC0D2F0BEC0D1F019C0D8F0F3
:1009A00018C0D7F017C0D6F016C0D5F011DD03C0BF
:1009B000D2F002C0D1F001C0D0F000C0CFF0EACF39
:1009C000D4F0E9CFD3F0D8826DC0DAF06CC0D9F0A2
:1009D0006BC0D8F06AC0D7F0DE6BDD6BDC6B7F0ECE
:1009E000DB6FB3EC00F0D4C0EAFFD3C0E9FF03C073
:1009F000D8F002C0D7F001C0D6F000C0D5F003C0D7
:100A0000DCF002C0DBF001C0DAF000C0D9F0E06B2E
:100A1000DF6BDE6B810EDD6F02EC00F003C0D8F0FF
:100A200002C0D7F001C0D6F000C0D5F07BEC00F0DA
:100A30006E0E0124E96E000E0220EA6EEFCF00F088
:100A4000ECCF01F0ECCF02F0ECCF03F0EACFD6F020
:100A5000E9CFD5F0D892D2C0DAF0D1C0D9F0D0C069
:100A6000D8F0CFC0D7F003C0DEF002C0DDF001C087
:100A7000DCF000C0DBF0B3EC00F0D6C0EAFFD5C07C
:100A8000E9FFCEC0DCF0CDC0DBF0CCC0DAF0CBC0EB
:100A9000D9F003C0E0F002C0DFF001C0DEF000C01A
:100AA000DDF002EC00F003C015F002C014F001C04C
:100AB00013F000C012F06DC0DCF06CC0DBF06BC056
:100AC000DAF06AC0D9F0E06BDF6BDE6B810EDD6FB0
:100AD00002EC00F003C0D8F002C0D7F001C0D6F09D
:100AE00000C0D5F07BEC00F06E0E0124E96E000E24
:100AF0000220EA6EEACFCEF0E9CFCDF0D8920DC059
:100B0000DAF00CC0D9F00BC0D8F00AC0D7F011C091
:100B1000DEF010C0DDF00FC0DCF00EC0DBF0B3EC97
:100B200000F0CEC0EAFFCDC0E9FF03C0D2F002C0A2
:100B3000D1F001C0D0F000C0CFF0EACFD4F0E9CFBF
:100B4000D3F0D89203C0DAF002C0D9F001C0D8F0D7
:100B500000C0D7F015C0DEF014C0DDF013C0DCF02B
:100B600012C0DBF0B3EC00F0D4C0EAFFD3C0E9FF61
:100B700000C0EFFF01C0ECFF02C0ECFF03C0ECFFC0
:100B8000D8926DC0DAF06CC0D9F06BC0D8F06AC0F2
:100B9000D7F0DE6BDD6BDC6B7F0EDB6FB3EC00F050
:100BA00003C06DF002C06CF001C06BF000C06AF0D1
:100BB0006DC0DCF06CC0DBF06BC0DAF06AC0D9F05D
:100BC000E06BDF6BDE6B810EDD6F02EC00F003C0CB
:100BD000D8F002C0D7F001C0D6F000C0D5F07BEC51
:100BE00000F06E0E0124E96E000E0220EA6EEFCFD7
:100BF000CBF0ECCFCCF0ECCFCDF0ECCFCEF0CC33D3
:100C0000CB33CC33CB33CC33CBC0BEFFCC33CC31A6
:100C1000300B006EBD50CF0B0010BD6ECE6BCD6B98
:100C2000200ECC6F830ECB6F6DC0D2F06CC0D1F0B4
:100C30006BC0D0F06AC0CFF078D401E217E16D6AE2
:100C40006C6A6B6A6A6ACA6BCA5113080FE3CA51AD
:100C5000040DF350036A1A0FE96E000E0320EA6ECA
:100C6000EF6AEC6AEC6AEC6ACA2BEED7D0D40300C8
:020000040030CA
:0E00000000C81E1E008781000FC00FE00F40D9
:00000001FF
;PIC18F4520
;CRC=575C  CREATED="04-ene.-21 18:45"
