:10000000BFEF02F0EA6A200EE96EEF500EE0010E3B
:10001000016E006A002EFED7012EFBD74A0E006E3D
:10002000002EFED700D0EF2EF2D7D8EF02F02250EC
:100030002402F3CF01F0F4CF00F02502F3500026A4
:1000400023502402F3500020026E1200016A026A5B
:10005000006A036A255002E1245018E0100E266E53
:10006000D89022362336003603362550035C02E151
:100070002450005C07E32450005ED8A003062550FE
:10008000035ED88001360236262EEAD705EF03F04C
:100090008E0E006E21C001F020C002F0036A0152F2
:1000A00009E102C001F0026A080E005E015202E19D
:1000B000006A08D0D89001BE04D00236013600068E
:1000C000F9D7019E12002050D8B4A5D02C6E245030
:1000D000D8B4A1D02C5E05E37F0E2C26D8B09BD0DF
:1000E00006D0810E2C5ED8A096D0D8B494D02CC067
:1000F00000F0016A026A036A2B6A21C02AF02A8E84
:1001000022C029F023C028F0190E2C6E2750285E3B
:100110000DE2010E295E0AE22A5E08E22B5E06E28B
:100120002B2A2A2A292A2750282628D02650295E19
:1001300012E2010E2A5E0FE22B5E0DE22B2A2A2A22
:10014000265029262750282619E3292A17E12A2A8A
:1001500015E12B2A13D0255080092A5E0EE2010EEC
:100160002B5E0BE22B2A255080092A2626502926B1
:10017000E9E32A2AE7E12B2AE5D703802C2E01D0D8
:100180000BD0D890283629362A362B36D89003360D
:10019000023601362D36BAD72DA006D0D8900132BE
:1001A000023203322D3202D0000635E02DBE1ED0C1
:1001B000D890283629362A362B362750285E07E273
:1001C000010E295E04E22A5E02E22B5E1AE326504B
:1001D000295E05E2010E2A5E02E22B5E12E3255043
:1001E00080092A5E03E2010E2B5E0BE3032A09E17C
:1001F000022A07E1012A05E1002A0DE0013202325C
:10020000033221C02CF025502C1A2CAE02D0018EC6
:1002100006D0019E04D0006A016A026A036A1200D5
:100220002050D8B471D0006E2450D8B46DD00026C0
:1002300004E3810E002668E204D07F0E005E64E3D2
:1002400063E021C028F02550281A218E258E2350E6
:100250002702F4CF2AF022502602F4CF03F0F3CF86
:1002600029F02702F3502A26F4502922000E0322F7
:1002700023502602F3502A26F4502922000E026A47
:100280000322022221502702F3502926F450032290
:10029000000E022221502602F3500326F4500222BF
:1002A000000E016A012223502502F3502926F45042
:1002B0000322000E0222012222502502F3500326BF
:1002C000F4500222000E012221502502F350022692
:1002D000F4500122002A01BE05D029360336023629
:1002E00001360006000E29AE0AD0032A022201229E
:1002F000015005E1025003E1035001E1002A28BE4C
:10030000018E28AE019E04D0006A016A026A036A67
:100310003AEF03F0800ED8B2251A2A6A2B6A21C060
:1003200029F02550291A2050D8B4DCD0286E006E50
:100330002450D8B4E0D0285ED8B481D03DE325C0A5
:100340002EF02E8E26C02DF027C02CF02B6AD890D0
:100350002E322D322C322B32282EF8D729AE03D054
:100360002A80DDD02A9028902A88EA6A230EE96E36
:10037000E9D02A9829BE0AD028A013D02E322D32D7
:100380002C322B32002AD8B4C5D00BD02EBE0CD0C4
:10039000D8902B362C362D362E360006D8B4BAD04F
:1003A000F5D72A8C6BD02A9C21C029F021AE02D02F
:1003B0002E8EA9D02E9EA7D024C028F024C000F0F5
:1003C0002050285E21C02EF02E8E22C02DF023C09A
:1003D0002CF02B6AD8902E322D322C322B32282E34
:1003E000F8D729AE03D02A829AD02A9228902A8A56
:1003F000EA6A270EE96EA6D02A9A29BE0AD028A05A
:1004000013D02E322D322C322B32002AD8B482D087
:100410000BD02EBE0CD0D8902B362C362D362E3647
:100420000006D8B477D0F5D72A8E28D02A9E25C0CA
:1004300029F025AE02D02E8E66D02E9E64D025C027
:100440002EF02E8E26C02DF027C02CF029AE04D021
:100450002E9E2A8464D02A942B6A2890EA6A230E5E
:10046000E96E70D029BE1CD021C029F028A006D08A
:100470002E322D322C322B32002A4CE02BAE0BD0F8
:100480002C2A09E12D2A07E12E2A05E12E322D32F0
:100490002C32002A3FE02ABC86D72ABEC7D71CD000
:1004A000800E2E1A2EAE04D03AD025C029F00AD0E4
:1004B00021C029F02E5206E12D5204E12C5202E116
:1004C000006A21D02EBE08D0D8902B362C362D367F
:1004D0002E36002EF7D71ED029AE02D02E8E13D086
:1004E0002E9E11D024C000F025C02EF026C02DF085
:1004F00027C02CF008D020C000F021C02EF022C070
:100500002DF023C02CF02EC001F02DC002F02CC025
:1005100003F034D0006A016A026A036A2FD02B6AA2
:100520002C1E2D1E2E1E2B1E2B2A05E12C2A03E12C
:100530002D2A01E12E2A2AB015D72AB256D72AB47D
:100540008AD7B3D7EF502C2605E32D2A03E12E2AB4
:10055000D8B42880ED52EF502D2603E32E2AD8B4CC
:100560002880ED52EF50EFBE01D0800A2E26D8B081
:1005700028802AB8FED62ABA3FD774D71200F86A64
:10058000D09E0590059205940596C150C00B0F09A9
:10059000C16E070EB46EC050C00B0709C06EC08E8E
:1005A000C280C150C00B0E09C16E640E206E2AD5E8
:1005B000000E016EC250C30B0110C26EC282C2B2E5
:1005C000FED7C3CF06F0C4CF07F0236A050E226E14
:1005D00007C025F006C024F02ADD02C021F001C0CA
:1005E00020F002C023F001C022F0256A640E246EC0
:1005F0001EDD02C021F001C020F002C023F001C0C6
:1006000022F0030E256E246821D502C003F001C03C
:1006100020F002C021F03CDD03C017F002C016F04C
:1006200001C015F000C014F017C023F016C022F06E
:1006300015C021F014C020F0276A266A200E256E0E
:10064000820E246E40DD03C01BF002C01AF001C010
:1006500019F000C018F01BC023F01AC022F019C016
:1006600021F018C020F0276A266A200E256E820E1F
:10067000246ED6D5D88217C023F016C022F015C03C
:1006800021F014C020F003C027F002C026F001C002
:1006900025F000C024F03EDE03C01FF002C01EF0B3
:1006A00001C01DF000C01CF0600E926EC050C00B67
:1006B0000709C06EC08EC280140E016EC250C30BFB
:1006C0000110C26EC282C2B2FED7C3CF06F0C4CF41
:1006D00007F007C021F006C020F0DADC03C023F0E9
:1006E00002C022F001C021F000C020F0CD0E276E24
:1006F000CC0E266E4C0E256E860E246EE4DC03C0F6
:100700000FF002C00EF001C00DF000C00CF00FC0E1
:1007100023F00EC022F00DC021F00CC020F0276A9B
:10072000266A200E256E820E246ECDDC059000B068
:100730000580000E05B0010E0A0DF350216A206EEF
:10074000A7DCD8820FC023F00EC022F00DC021F02C
:100750000CC020F003C027F002C026F001C025F035
:1007600000C024F0D7DD00C001F0059200B0058282
:06077000A3D71ED7030011
:020000040030CA
:0E00000000C11E1E008781000FC00FE00F40E0
:00000001FF
;PIC18F4520
;CRC=5184  CREATED="28-dic.-20 13:31"
