:1000000094EF02F08E0E006EEFC001F0EEC002F031
:10001000036A015209E102C001F0026A080E005EA3
:10002000015202E1006A08D0D89001BE04D0023625
:1000300001360006F9D7019E1200EA51D8B471D0FA
:10004000006EEE51D8B46DD0002604E3810E002678
:1000500068E204D07F0E005E64E363E0EBC0F2F080
:10006000EF51F21BEB8FEF8FED51F103F4CFF4F072
:10007000EC51F003F4CF03F0F3CFF3F0F103F350BE
:10008000F427F450F323000E0322ED51F003F35054
:10009000F427F450F323000E026A03220222EB51EC
:1000A000F103F350F327F4500322000E0222EB5128
:1000B000F003F3500326F4500222000E016A0122DD
:1000C000ED51EF03F350F327F4500322000E022208
:1000D0000122EC51EF03F3500326F4500222000EEC
:1000E0000122EB51EF03F3500226F4500122002AC3
:1000F00001BE05D0F3370336023601360006000E86
:10010000F3AF0AD0032A02220122015005E1025076
:1001100003E1035001E1002AF2BF018EF2AF019E1C
:1001200004D0006A016A026A036A1200800ED8B223
:10013000F51BFA6BFB6BF1C0F9F0F551F91BF051AF
:10014000D8B4DCD0F86F006EF451D8B4E0D0F85FCA
:10015000D8B481D03DE3F5C0FEF0FE8FF6C0FDF0CF
:10016000F7C0FCF0FB6BD890FE33FD33FC33FB3360
:10017000F82FF8D7F9AF03D0FA81DDD0FA91F891D2
:10018000FA89EA6AF30EE96EE9D0FA99F9BF0AD062
:10019000F8A113D0FE33FD33FC33FB33002AD8B46F
:1001A000C5D00BD0FEBF0CD0D890FB37FC37FD3745
:1001B000FE370006D8B4BAD0F5D7FA8D6BD0FA9DC9
:1001C000F1C0F9F0F1AF02D0FE8FA9D0FE9FA7D009
:1001D000F4C0F8F0F4C000F0F051F85FF1C0FEF0A8
:1001E000FE8FF2C0FDF0F3C0FCF0FB6BD890FE3345
:1001F000FD33FC33FB33F82FF8D7F9AF03D0FA8384
:100200009AD0FA93F891FA8BEA6AF70EE96EA6D0C3
:10021000FA9BF9BF0AD0F8A113D0FE33FD33FC33AB
:10022000FB33002AD8B482D00BD0FEBF0CD0D890BC
:10023000FB37FC37FD37FE370006D8B477D0F5D74B
:10024000FA8F28D0FA9FF5C0F9F0F5AF02D0FE8FF3
:1002500066D0FE9F64D0F5C0FEF0FE8FF6C0FDF0C4
:10026000F7C0FCF0F9AF04D0FE9FFA8564D0FA9590
:10027000FB6BF891EA6AF30EE96E70D0F9BF1CD0FF
:10028000F1C0F9F0F8A106D0FE33FD33FC33FB33A7
:10029000002A4CE0FBAF0BD0FC2B09E1FD2B07E162
:1002A000FE2B05E1FE33FD33FC33002A3FE0FABDAF
:1002B00086D7FABFC7D71CD0800EFE1BFEAF04D076
:1002C0003AD0F5C0F9F00AD0F1C0F9F0FE5306E1DA
:1002D000FD5304E1FC5302E1006A21D0FEBF08D0C7
:1002E000D890FB37FC37FD37FE37002EF7D71ED0EE
:1002F000F9AF02D0FE8F13D0FE9F11D0F4C000F0F2
:10030000F5C0FEF0F6C0FDF0F7C0FCF008D0F0C07C
:1003100000F0F1C0FEF0F2C0FDF0F3C0FCF0FEC052
:1003200001F0FDC002F0FCC003F034D0006A016AA5
:10033000026A036A2FD0FB6BFC1FFD1FFE1FFB1F11
:10034000FB2B05E1FC2B03E1FD2B01E1FE2BFAB1B8
:1003500015D7FAB356D7FAB58AD7B3D7EF50FC27DB
:1003600005E3FD2B03E1FE2BD8B4F881ED52EF50ED
:10037000FD2703E3FE2BD8B4F881ED52EF50EFBE1A
:1003800001D0800AFE27D8B0F881FAB9FED6FABBB0
:100390003FD774D71200EE51D8B4A5D0FA6FF251FE
:1003A000D8B4A1D0FA5F05E37F0EFA27D8B09BD06E
:1003B00006D0810EFA5FD8A096D0D8B494D0FAC0F7
:1003C00000F0016A026A036AF96BEFC0F8F0F88F77
:1003D000F0C0F7F0F1C0F6F0190EFA6FF551F65FC4
:1003E0000DE2010EF75F0AE2F85F08E2F95F06E24C
:1003F000F92BF82BF72BF551F62728D0F451F75F9E
:1004000012E2010EF85F0FE2F95F0DE2F92BF82B13
:10041000F451F727F551F62719E3F72B17E1F82BDD
:1004200015E1F92B13D0F3518009F85F0EE2010EAC
:10043000F95F0BE2F92BF3518009F827F451F72704
:10044000E9E3F82BE7E1F92BE5D70380FA2F01D098
:100450000BD0D890F637F737F837F937D8900336FE
:1004600002360136FB37BAD7FBA106D0D89001324D
:1004700002320332FB3302D0000635E0FBBF1ED050
:10048000D890F637F737F837F937F551F65F07E2C6
:10049000010EF75F04E2F85F02E2F95F1AE3F4513C
:1004A000F75F05E2010EF85F02E2F95F12E3F35134
:1004B0008009F85F03E2010EF95F0BE3032A09E10B
:1004C000022A07E1012A05E1002A0DE00132023289
:1004D0000332EFC0FAF0F351FA1BFAAF02D0018EEB
:1004E00006D0019E04D0006A016A026A036A120003
:1004F0008E0E006EF051005EF1C002F0F2C001F00D
:10050000028E005209E0D890025202E1015204E04A
:1005100002320132002EF7D7F1AF05D0011E021EC4
:10052000012AD8B4022A1200F86AD09E600ED36E57
:10053000D350066A010E0C6E716AD96BD86BD76BFB
:100540007F0ED66FDD6BDC6BDB6B7E0EDA6FE16BE3
:10055000E06BDF6B7E0EDE6FC150C00B0F09C16E0A
:10056000070EB46EF90E076E010E086E085C016E80
:100570000134006E00360036F80E001600500509F2
:10058000CA6E07C0CBFF94948B940C0EBD6EB76AF5
:10059000B66AC150C00BC16EC050C00B0709C06E17
:1005A000C08EC280000E016EC250C30B0110C26E1D
:1005B000200E006E002EFED700D00000C282C2B214
:1005C000FED7C3CF04F0040E016EC250C30B01105E
:1005D000C26E200E006E002EFED700D00000C28238
:1005E000C2B2FED7C3CF05F0036A71500D0FE96E9A
:1005F000000E0320EA6E0450055CEF6E036A715032
:100600000D0FE96E000E0320EA6EEFCFE3F0EF6B03
:100610000CC0EEF0F7DCDDC0EDF0DCC0ECF0DBC0D0
:10062000EBF0DAC0EAF003C0F1F002C0F0F001C074
:10063000EFF000C0EEF001DDEACFE5F0E9CFE4F045
:10064000D892E1C0F3F0E0C0F2F0DFC0F1F0DEC01C
:10065000F0F003C0F7F002C0F6F001C0F5F000C002
:10066000F4F064DDE5C0EAFFE4C0E9FF03C0E9F0AF
:1006700002C0E8F001C0E7F000C0E6F0EF6BE3C0B5
:10068000EEF0C0DC03C0EDF002C0ECF001C0EBF016
:1006900000C0EAF0E9C0F1F0E8C0F0F0E7C0EFF028
:1006A000E6C0EEF0CADC03C0EDF002C0ECF001C021
:1006B000EBF000C0EAF0EF6B0CC0EEF0A3DCD9C0A9
:1006C000F1F0D8C0F0F0D7C0EFF0D6C0EEF003C024
:1006D000F5F002C0F4F001C0F3F000C0F2F05BDE10
:1006E000EACFEFF0E9CFEEF0D892EDC0F3F0ECC036
:1006F000F2F0EBC0F1F0EAC0F0F003C0F7F002C096
:10070000F6F001C0F5F000C0F4F010DDEFC0EAFF34
:10071000EEC0E9FF03C0F3F002C0F2F001C0F1F057
:1007200000C0F0F0E5DE01C009F0010E715C036A63
:100730000D0FE96E000E0320EA6EEFCFE3F0EF6BD2
:100740000CC0EEF05FDCD9C0F1F0D8C0F0F0D7C03B
:10075000EFF0D6C0EEF003C0F5F002C0F4F001C037
:10076000F3F000C0F2F017DEED6BEC6B800EEB6F78
:10077000EA6F03C0F1F002C0F0F001C0EFF000C07A
:10078000EEF05BDC03C0E7F002C0E6F001C0E5F08C
:1007900000C0E4F0EACFE9F0E9CFE8F0D88203C086
:1007A000F3F002C0F2F001C0F1F000C0F0F0E1C0DF
:1007B000F7F0E0C0F6F0DFC0F5F0DEC0F4F0B6DC34
:1007C000E9C0EAFFE8C0E9FF03C0E7F002C0E6F0D5
:1007D00001C0E5F000C0E4F0EF6BE3C0EEF012DC26
:1007E00003C0EDF002C0ECF001C0EBF000C0EAF095
:1007F000E7C0F1F0E6C0F0F0E5C0EFF0E4C0EEF0E5
:100800001CDC03C0F3F002C0F2F001C0F1F000C044
:10081000F0F06EDE01C00AF0020E715C036A0D0F8B
:10082000E96E000E0320EA6EEFCFE3F0EF6B0CC031
:10083000EEF002EC00F0D9C0F1F0D8C0F0F0D7C073
:10084000EFF0D6C0EEF003C0F5F002C0F4F001C046
:10085000F3F000C0F2F09FDD03C0E7F002C0E6F065
:1008600001C0E5F000C0E4F0010E715C036A720F94
:10087000E96E000E0320EA6EEF50EF6BEE6F02ECB4
:1008800000F0EACFE9F0E9CFE8F0D892E7C0F3F062
:10089000E6C0F2F0E5C0F1F0E4C0F0F003C0F7F01C
:1008A00002C0F6F001C0F5F000C0F4F03FDCE9C092
:1008B000EAFFE8C0E9FF03C0E7F002C0E6F001C0CC
:1008C000E5F000C0E4F0EF6BE3C0EEF002EC00F006
:1008D00003C0EDF002C0ECF001C0EBF000C0EAF0A4
:1008E000E7C0F1F0E6C0F0F0E5C0EFF0E4C0EEF0F4
:1008F0001DEC00F003C0F3F002C0F2F001C0F1F013
:1009000000C0F0F0F5DD01C00BF0036A7150720F0A
:10091000E96E000E0320EA6E0A5009240B24EF6EE4
:10092000010E7126036A7150720FE96E000E0320EA
:10093000EA6EEFCFE3F0E3C0BEFF715013080FE2A1
:10094000716AE26BE25163080AE3036AE2510D0F38
:10095000E96E000E0320EA6EEF6AE22BF3D722D68F
:02096000030092
:020000040030CA
:0E00000000C81E1E008781000FC00FE00F40D9
:00000001FF
;PIC18F4520
;CRC=496B  CREATED="06-ene.-21 16:39"
