:10000000C9EF01F0EA6A0E0EE96EEF500EE0010E44
:10001000016E006A002EFED7012EFBD74A0E006E3D
:10002000002EFED700D0EF2EF2D71200949C8B8CBE
:1000300094988B98949A8B9A95908C8095928C92A8
:1000400095948C9495968C9695988C98959A8C9A74
:10005000959C8C9C959E8C9E050E0E6ED3DF949C79
:100060008B9C050E0E6ECEDF949C8B8C1200949CA4
:100070008B8C94988B98949A8B9A95908C9095925F
:100080008C9295948C8495968C8695988C98959A5C
:100090008C9A959C8C9C959E8C9E050E0E6EB2DF64
:1000A000949C8B9C050E0E6EADDF949C8B8C7DEF2B
:1000B00000F0949C8B8C94988B98949A8B9A959042
:1000C0008C9095928C9295948C8495968C8695982C
:1000D0008C88959A8C8A959C8C9C959E8C9E050EFE
:1000E0000E6E90DF949C8B9C050E0E6E8BDF949CA5
:1000F0008B8C7EEF00F09ADFBAD7DBD7DEEF01F012
:1001000010501202F3CF01F0F4CF00F01302F350BD
:10011000002611501202F3500020026E1200016AF4
:10012000026A006A036A135002E1125018E0100ECE
:10013000146ED89010361136003603361350035C17
:1001400002E11250005C07E31250005ED8A00306E3
:100150001350035ED88001360236142EEAD70AEF18
:1001600002F08E0E006E0FC001F00EC002F0036AA6
:10017000015209E102C001F0026A080E005E01525C
:1001800002E1006A08D0D89001BE04D002360136E0
:100190000006F9D7019E11EF02F0949C8B8C949885
:1001A0008B88949A8B9A16C0E9FF17C0EAFFEF2C50
:1001B00003D095908C8002D095908C90010E1624DF
:1001C000E96E000E1720EA6EEF2C03D095928C8218
:1001D00002D095928C92020E1624E96E000E172022
:1001E000EA6EEF2C03D095948C8402D095948C9475
:1001F000030E1624E96E000E1720EA6EEF2C03D0D2
:1002000095968C8602D095968C96040E1624E96EEF
:10021000000E1720EA6EEF2C03D095988C8802D040
:1002200095988C98050E1624E96E000E1720EA6E3C
:10023000EF2C03D0959A8C8A02D0959A8C9A060E50
:100240001624E96E000E1720EA6EEF2C03D0959C61
:100250008C8C02D0959C8C9C070E1624E96E000EA7
:100260001720EA6EEF2C03D0959E8C8E02D0959EBF
:100270008C9E949C8B9C949C8B8CACEF01F00E50CC
:10028000F60F66E20A0FB2EF01F0166A156A010E68
:10029000146E136E126A116A106A0F6A59D0166AC8
:1002A000156A010E146E136E126A116A106A0F6ECF
:1002B0004FD0166A156A010E146E136E126A116A17
:1002C000106E0F6A45D0166A156A010E146E136E11
:1002D000126A116A106E0F6E3BD0166A156A010E13
:1002E000146E136E126A116E106A0F6A31D0166A9C
:1002F000156A010E146E136E126A116E106A0F6E7B
:1003000027D0166A156A010E146E136E126A116EEA
:10031000106E0F6A1DD0166A156A010E146E136EE8
:10032000126A116E106E0F6E13D0166A156A010EE6
:10033000146E136E126E116A106A0F6A09D0166A73
:10034000156A010E146E136E126E116A106A0F6E2A
:10035000176A0F0E166E21D70F0E016E000E026E79
:1003600046EF02F0E824F76AF7367F0FF66E030EC9
:10037000F7220A00F550FA6E0800F550F96E8A026D
:100380009E02B202C602DA02EE02020316032A033A
:100390003E03F86AD09E010E056EC150C00B0F09D6
:1003A000C16E070EB46EC050C00B0709C06EC09E70
:1003B000C280C150C00B0E09C16E9DD6000E016EE9
:1003C000C250C30B0110C26EC282C2B2FED7096A0C
:1003D000C4CF08F0116A050E106E09C013F008C0F2
:1003E00012F08EDE02C00FF001C00EF002C011F05C
:1003F00001C010F0136A640E126E82DE02C00FF0AC
:1004000001C00EF002C011F001C010F0030E136E17
:10041000126885D602C003F001C00EF002C00FF0D2
:10042000A0D603C00DF002C00CF001C00BF000C05C
:100430000AF09382046A81B2042A9384066A81B422
:10044000062A9386076A81B6072A042C0BD0939E4E
:100450008A8E052A938281A201D0FCD7640E0E6E8B
:10046000D1DD02D0939E8A9E062C03D0939C8A8C69
:1004700002D0939C8A9C072C03D0939A8A8A02D03C
:10048000939A8A9AD3DD08C00EF0F9D697D7030065
:020000040030CA
:0E0000003FC03E1E0087A1000FC00FE00F4062
:00000001FF
;PIC18F4550
;CRC=BDEF  CREATED="09-ene.-21 18:15"
