:1000000002EF03F0EA6A080EE96EEF500EE0010E0F
:10001000016E006A002EFED7012EFBD74A0E006E3D
:10002000002EFED700D0EF2EF2D71200949C8B8CBE
:1000300094988B98949A8B9A95908C8095928C92A8
:1000400095948C9495968C9695988C98959A8C9A74
:10005000959C8C9C959E8C9E050E086ED3DF949C7F
:100060008B9C050E086ECEDF949C8B8C1200949CAA
:100070008B8C94988B98949A8B9A95908C9095925F
:100080008C9295948C8495968C8695988C98959A5C
:100090008C9A959C8C9C959E8C9E050E086EB2DF6A
:1000A000949C8B9C050E086EADDF949C8B8C7DEF31
:1000B00000F0949C8B8C94988B98949A8B9A959042
:1000C0008C9095928C9295948C8495968C8695982C
:1000D0008C88959A8C8A959C8C9C959E8C9E050EFE
:1000E000086E90DF949C8B9C050E086E8BDF949CB1
:1000F0008B8C7EEF00F09ADFBAD7DBD70DEF03F0E1
:10010000949C8B8C94988B88949A8B9A10C0E9FF5E
:1001100011C0EAFFEF2C03D095908C8002D095900F
:100120008C90010E1024E96E000E1120EA6EEF2C67
:1001300003D095928C8202D095928C92020E10245C
:10014000E96E000E1120EA6EEF2C03D095948C849A
:1001500002D095948C94030E1024E96E000E1120A9
:10016000EA6EEF2C03D095968C8602D095968C96ED
:10017000040E1024E96E000E1120EA6EEF2C03D05D
:1001800095988C8802D095988C98050E1024E96E6D
:10019000000E1120EA6EEF2C03D0959A8C8A02D0C3
:1001A000959A8C9A060E1024E96E000E1120EA6EC4
:1001B000EF2C03D0959C8C8C02D0959C8C9C070EC8
:1001C0001024E96E000E1120EA6EEF2C03D0959EEC
:1001D0008C8E02D0959E8C9E949C8B9C949C8B8C38
:1001E00012000850F60F66E20A0F63EF01F0106A82
:1001F0000F6A010E0E6E0D6E0C6A0B6A0A6A096AAE
:1002000059D0106A0F6A010E0E6E0D6E0C6A0B6AE1
:100210000A6A096E4FD0106A0F6A010E0E6E0D6EDB
:100220000C6A0B6A0A6E096A45D0106A0F6A010EE1
:100230000E6E0D6E0C6A0B6A0A6E096E3BD0106A68
:100240000F6A010E0E6E0D6E0C6A0B6E0A6A096A59
:1002500031D0106A0F6A010E0E6E0D6E0C6A0B6EB5
:100260000A6A096E27D0106A0F6A010E0E6E0D6EB3
:100270000C6A0B6E0A6E096A1DD0106A0F6A010EB5
:100280000E6E0D6E0C6A0B6E0A6E096E13D0106A3C
:100290000F6A010E0E6E0D6E0C6E0B6A0A6A096A09
:1002A00009D0106A0F6A010E0E6E0D6E0C6E0B6A8D
:1002B0000A6A096E116A090E106E22DF090E016EBC
:1002C000000E026E1200E824F76AF736E10FF66EB0
:1002D000020EF7220A00F550FA6E0800F550F96E8A
:1002E000EE01020216022A023E02520266027A025F
:1002F0008E02A202200E085CC20FD8B02ED13E0F93
:10030000B7EF02F0106A010E0F6E0E6A0D6A0C6AEA
:100310000B6A0A6A096E21D1106A010E0F6E0E6A0D
:100320000D6A0C6A0B6A0A6E096A17D1106A010E0F
:100330000F6E0E6A0D6A0C6A0B6A0A6E096E0DD199
:10034000106A010E0F6E0E6A0D6A0C6A0B6E0A6A55
:10035000096A03D1106A010E0F6E0E6A0D6A0C6AEB
:100360000B6E0A6A096EF9D0106A010E0F6E0E6AE2
:100370000D6A0C6A0B6E0A6E096AEFD0106A010EE4
:100380000F6E0E6A0D6A0C6A0B6E0A6E096EE5D06E
:10039000106A010E0F6E0E6A0D6A0C6E0B6A0A6A05
:1003A000096ADBD0106A010E0F6E0E6A0D6A0C6EC0
:1003B0000B6A0A6A096ED1D0106A010E0F6E0E6ABE
:1003C0000D6A0C6E0B6A0A6E096AC7D0106A010EBC
:1003D0000F6E0E6A0D6A0C6E0B6A0A6E096EBDD046
:1003E000106A010E0F6E0E6A0D6A0C6E0B6E0A6AB1
:1003F000096AB3D0106A010E0F6E0E6A0D6A0C6E98
:100400000B6E0A6A096EA9D0106A010E0F6E0E6A91
:100410000D6A0C6E0B6E0A6E096A9FD0106A010E8F
:100420000F6E0E6A0D6A0C6E0B6E0A6E096E95D019
:10043000106A010E0F6E0E6A0D6E0C6A0B6A0A6A64
:10044000096E8BD0106A010E0F6E0E6A0D6E0C6A6B
:100450000B6A0A6E096A81D0106A010E0F6E0E6A6D
:100460000D6E0C6A0B6A0A6E096A77D0106A010E6B
:100470000F6E0E6A0D6E0C6A0B6E0A6A096A6DD0F9
:10048000106A010E0F6E0E6A0D6E0C6A0B6E0A6A10
:10049000096E63D0106A010E0F6E0E6A0D6E0C6A43
:1004A0000B6E0A6E096A59D0106A010E0F6E0E6A41
:1004B0000D6E0C6A0B6E0A6E096E4FD0106A010E3B
:1004C0000F6E0E6A0D6E0C6E0B6A0A6A096A45D0D1
:1004D000106A010E0F6E0E6A0D6E0C6E0B6A0A6AC0
:1004E000096E3BD0106A010E0F6E0E6A0D6E0C6E17
:1004F0000B6A0A6E096A31D0106A010E0F6E0E6A1D
:100500000D6E0C6E0B6A0A6E096E27D0106A0F6AA8
:10051000010E0E6E0D6A0C6E0B6E0A6E096E1DD00A
:10052000106A0F6A010E0E6E0D6A0C6A0B6A0A6A77
:10053000096A13D0106A010E0F6E0E6A0D6E0C6AF6
:100540000B6E0A6A096A09D0106A010E0F6E0E6AF4
:100550000D6E0C6A0B6E0A6A096A116A090E106E3A
:10056000CFDD090E016E000E026E3DEF03F0E824B0
:10057000F76AF736890FF66E050EF7220A00F55076
:10058000FA6E0800F550F96E20055A055A055A050D
:100590005A055A055A055A055A055A055A055A0563
:1005A0005A055A055A050C055A055A055A055A05A1
:1005B0005A055A055A055A055A055A055A055A0543
:1005C0005A055A055A055A055A05040318032C03FF
:1005D0004003540368037C039003A403B803CC03D3
:1005E000E003F40308041C043004440458046C04BD
:1005F00080049404A804BC04D004E404F804340582
:100600005A054805F86AD09E010E056EC150C00B10
:100610000F09C16E070EB46E6ED59380046A81B067
:10062000042A9382066A81B2062A9384076A81B4F7
:10063000072A042C0BD0939E8A8E052A938081A0D2
:1006400001D0FCD7640E086EDDDC02D0939E8A9E3A
:10065000062C03D0939C8A8C02D0939C8A9C072CF6
:1006600003D0939A8A8A02D0939A8A9ADFDC05C0D3
:1006700008F0B7DD2F0E086E3DD6020E086EB1DD14
:04068000CCD70300D0
:020000040030CA
:0E0000003FC03E1E0087A1000FC00FE00F4062
:00000001FF
;PIC18F4550
;CRC=E775  CREATED="07-ene.-21 14:48"
