:1000000088EF15F020444F4D494E474F2020000007
:10001000204C554E455320200000204D4152544560
:10002000532000004D494552434F4C4553004A551B
:1000300045564553200020564945524E45532020F1
:10004000000053414241444F2000494E4943494139
:100050004E444F2053495354454D41200A202045DA
:1000600053504552452E2E2E2E000C00416C6261DD
:100070003A20256600004F6361736F3A20256600C1
:10008000416C62613A2025660000010EEA6E4F0E57
:10009000E96EEF500DE0020E016E006A002EFED7F1
:1000A000012EFBD7970E006E002EFED7EF2EF3D752
:1000B0001200010156B102D08C9801D08C8856B341
:1000C00002D08C9A01D08C8A56B502D08C9C01D07B
:1000D0008C8C56B702D08C9E01D08C8E00008C8404
:1000E00000D000D08C94000112000101576B000E6B
:1000F00083B8010E5713000E83BA010E006ED8901C
:10010000003600505713000E83BC010E006E0036FF
:100110000036FC0E001600505713000E83BE010E71
:10012000006E003600360036F80E001600505713E9
:1001300057C101F0000112009588958A958C958E23
:100140008C8200008C840000D0DF01C056F18C94BA
:1001500000008C8400D0C9DF01C055F18C949598C3
:10016000959A959C959E01015639006EF00E0016E9
:1001700000505511016E0001C3EF00F09594959069
:1001800095928C90D9D701C055F1010101AE02D0F2
:100190000001F8D7535302E18C9001D08C8000000D
:1001A0008C9200008C945439556F0F0E551755C121
:1001B00056F100017EDF010154510F0B556F566F50
:1001C000000177DF1200280E0101426F0C0E436F11
:1001D000010E446F060E456F8C948C908C9295980E
:1001E000959A959C959E9594959095920F0E4F6F2C
:1001F00000014BDF010E0101416F415103080CE387
:10020000030E566F000155DF050E01014F6F00010F
:100210003CDF0101412BF1D7020E566F000149DF8F
:10022000050E01014F6F000130DF0101416B4151AB
:10023000030811E3036A4151420FE96E010E0320E6
:10024000EA6EEFCF46F1536B46C154F1000196DFE1
:100250000101412BECD70001F1EF15F00101502D08
:1002600001D003D0400E516F01D0516B010E4F5D94
:10027000512751518009526F536B546F00017EDF3B
:10028000120001014E51070A000107E00B0A0CE0C1
:10029000060A16E0020A1CE022D0010E01014F6F8F
:1002A000506F0001DBDF22D00101536B010E546F50
:1002B000000164DF020E01014F6F0001E6DE16D07F
:1002C000010E01014F6F020E506F0001C7DF0ED00B
:1002D0000101536B100E546F000150DF07D0010E67
:1002E0000101536F4EC154F1000148DF12000900B3
:1002F000F5520CE0F6CF43F1F7CF44F1F5CF4EF1D4
:10030000C0DF43C1F6FF44C1F7FFF1D712009EAA38
:10031000FED7ABCF04F0AECF01F004A202D0AB9871
:10032000AB88F6EF01F001014D6B4C514D25036A8E
:100330004A25016E4B51032203C04FF1036A4D5110
:100340004825E96E49510320EA6EEFCF50F14FC1C5
:10035000EAFF01C0E9FF50C1EFFF4D514D2B036A89
:100360004825E96E49510320EA6EEF52DEE10001B3
:10037000120001014AC1E9FF4BC1EAFFEFCF4EF184
:100380004DC103F04CC1E9FF4DC1EAFFEF504E5D96
:1003900015E14BC103F04AC1E9FF03C0EAFFEF5288
:1003A00003E1000E016E1FD04BC103F04A514A2BEE
:1003B000D8B44B2B4C2BD8B44D2BDCD74BC103F00E
:1003C0004AC1E9FF4BC1EAFFEFCF4EF14DC103F047
:1003D0004CC1E9FF4DC1EAFFEF504E5D02E2FF0E56
:1003E00001D0010E016E0001120091D701C041F150
:1003F000010141510D0A000105E0290A14E0080A33
:1004000016E0F6D00D2C01D00B800D50020801E152
:100410000B820BA007D00BA205D00B920B90010E04
:10042000016EF2D0EFD00C6A0CC00EF0EBD0036A74
:100430000C50570FE96E000E0320EA6EEF6A0E5261
:100440003FE10101496B570E486F4B6B0F0E4A6F2E
:100450004C6B000168DF470E0101426F500E436F85
:10046000520E446F4D0E456F430E466F476B4B6BFC
:100470000F0E4A6F010E4D6F420E4C6F000179DF77
:10048000015203E1010E0D6E1BD0470E0101426FB8
:10049000500E436F470E446F456F410E466F476BDA
:1004A0004B6B0F0E4A6F010E4D6F420E4C6F0001E9
:1004B00060DF015203E1020E0D6E02D0030E0D6EDD
:1004C0000E2C0CD00D2C0AD00101496B570E486F31
:1004D0004B6B150E4A6F4C6B000125DF0E50030865
:1004E0000DE10D2C0BD00101496B570E486F4B6B82
:1004F000360E4A6F010E4C6F000115DF0E500408D6
:100500000AE10D2C08D057504E0803E1300E366E2C
:1005100002D02D0E366E0E5005080DE10D2C0BD0BD
:100520000101496B570E486F4B6B430E4A6F010E2A
:100530004C6F0001F8DE0E5006080AE10D2C08D0C1
:100540005750450803E1300E436E02D02D0E436E26
:100550000E5007080CE10D2C0AD00101496B570E13
:10056000486F4B6B270E4A6F4C6B0001DCDE0E5060
:1005700008080CE10D2C0AD00101496B570E486F99
:100580004B6B2D0E4A6F4C6B0001CDDE0E500908EF
:100590000CE10D2C0AD00101496B570E486F4B6BD3
:1005A000200E4A6F4C6B0001BEDE0E5007080DE1B5
:1005B0000D5002080AE10101496B570E486F4B6B61
:1005C000330E4A6F4C6B0001AEDE0E5009080DE190
:1005D0000D5002080AE10101496B570E486F4B6B41
:1005E000500E4A6F4C6B00019EDE0E2A0C6A0AD038
:1005F0000C500C2A036A570FE96E000E0320EA6EB6
:1006000041C1EFFF000E016E14EF16F0300E155CC5
:100610000A0DF3CF41F10101300E165C4125016E48
:1006200000012AEF16F0300E175C0A0DF3CF41F1EE
:100630000101300E185C4125016E00012EEF16F00D
:10064000300E195C0A0DF3CF41F10101300E1A5C36
:100650004125016E000132EF16F0300E205C0A0DCC
:10066000F3CF41F10101300E215C4125016E000103
:1006700036EF16F0300E225C0A0DF3CF41F1010186
:10068000300E235C4125016E00013AEF16F0300E6A
:10069000245C0A0DF3CF41F10101300E255C4125A8
:1006A000016E000141EF16F00101586B596B010E0C
:1006B0005A6FDA6AD96A5D6F500E5C6F010EEA6E8E
:1006C000540EE96E5DC1E2FF5CC1E1FF5AC15BF10E
:1006D000D890E550EE02F3505823F45059235B2F85
:1006E000F7D758C1DEFF59C158F1596BD8B0592B13
:1006F0005C2BD8B45D2B5A2B5A510508DFE1000161
:100700001200016A026A006A036A0101535102E1A0
:10071000525118E0100E546FD890503751370036B0
:1007200003365351035C02E15251005C07E352511E
:10073000005ED8A003065351035ED880013602360E
:10074000542FEAD7000112006C0E01014C254E6FA8
:10075000070E4D214F6F516F4EC150F1010E536F77
:10076000900E526F0001CDDF00C04EF1010103C0B9
:100770004FF14E5302E14F5324E06C0E4C254E6F67
:10078000070E4D214F6F030E4E174F6B4E531CE15A
:100790004F531AE16C0E4C254E6F070E4D214F6FD3
:1007A000516F4EC150F1536B640E526F0001A9DFBF
:1007B00000C04EF1010103C04FF14E5302E14F530F
:1007C00003E0010E016E02D0000E016E0001120066
:1007D00001014E51016A4D5D03E24DC100F00CD0A4
:1007E000006A080E4F6F4D3700364E51005CD8B08E
:1007F000006E01364F2FF7D70001120001014F5153
:10080000000A000117E0020A15E0060A13E0020AD6
:1008100011E0010A0FE00E0A0DE0020A0BE00A0ADD
:100820000CE0020A16E0060A14E00D0A12E0020AC1
:1008300010E012D01F0E016E11D00101505305E0DF
:100840001D0E016E00010AD001011C0E016E000197
:1008500005D01E0E016E02D0000E016E1200D8B23D
:1008600004D0010EEA6E600EE96E01015B515F1962
:10087000800B656F5BAF0BD0581F591F5A1F5B1F52
:10088000582BD8B4592BD8B45A2BD8B45B2B5FAFA4
:100890000BD05C1F5D1F5E1F5F1F5C2BD8B45D2BF0
:1008A000D8B45E2BD8B45F2B006A016A026A036A6F
:1008B000606B616B626B636B5F515E115D115C110C
:1008C0002CE0200E646FD890583759375A375B3771
:1008D00060376137623763375F51635D08E15E51AE
:1008E000625D05E15D51615D02E15C51605D0FE3B8
:1008F0005C51605F5D51D8A05D3D615F5E51D8A0E5
:100900005E3D625F5F51D8A05F3D635FD880003677
:10091000013602360336642FD6D765AF0BD0001EE2
:10092000011E021E031E002AD8B4012AD8B4022ACE
:10093000D8B4032A60C1EFFF61C1ECFF62C1ECFFD4
:1009400063C1ECFF000112000101466B456B446B73
:10095000436B4791496B486B415303E14253D8B411
:1009600056D241C1E9FF42C1EAFFEF504327000ED2
:10097000442345234623010E4125E96E000E422102
:10098000EA6EEF504D6B4C6B4B6B4A6FEACF4FF1F9
:10099000E9CF4EF14DC153F14CC152F14BC151F170
:1009A000506F576B566B556B3C0E546F00017CDEDD
:1009B0004FC1EAFF4EC1E9FF00500101432701503A
:1009C00044230250452303504623020E4125E96E7D
:1009D000000E4221EA6EEF504D6B4C6B4B6B4A6F31
:1009E000EACF4FF1E9CF4EF14DC153F14CC152F175
:1009F0004BC151F1506F576B566B0E0E556F100E69
:100A0000546F000151DE4FC1EAFF4EC1E9FF0050B3
:100A1000010143270150442302504523035046233C
:100A2000050E4125E96E000E4221EA6EECCF4BF136
:100A3000ED52EFCF4AF14BC14DF14AC14CF10001EB
:100A400083DE0101479101B04781040E4125E96E23
:100A5000000E4221EA6EEFCF4DF10C0E4E6F0001F9
:100A6000B7DE00C0EFFF0101496B010E486F040EB5
:100A70004125E96E000E4221EA6EEF50495336E1FE
:100A8000485D01E033E2010E485D4A6F000E4959AE
:100A90004B6F000E47B1010E4C6F4AC14FF1506FC2
:100AA0000001ACDEEACF4CF1E9CF4BF10101536B11
:100AB000526B516B01C050F1576B010E566F510EC6
:100AC000556F800E546F0001EFDD4CC1EAFF4BC142
:100AD000E9FF005001014327015044230250452300
:100AE00003504623482BD8B4492BC1D7030E4125C8
:100AF000016E000E4221036E01C04AF14B6FEA6E97
:100B000001C0E9FFEFCF4CF1040E4125E96E000E64
:100B10004221EA6EEFCF4DF1000E47B1010E4E6F4C
:100B20004DC14FF1506F000169DE4CC14DF101C064
:100B30004EF14EDE01014BC1EAFF4AC1E9FF00C0A0
:100B4000EFFF030E4125E96E000E4221EA6EEACF67
:100B50004CF1E9CF4BF1536B526B516BEFCF50F12E
:100B6000576B010E566F510E556F800E546F00017A
:100B70009BDD4CC1EAFF4BC1E9FF00500101432757
:100B800001504423025045230350462347A154D02B
:100B9000080E4125016E000E4221036E01C04AF18C
:100BA0004B6FEACF4DF1E9CF4CF1D89246C15BF1E2
:100BB00045C15AF144C159F143C158F15F6B010E6F
:100BC0005E6F510E5D6F800E5C6F000148DE4DC19F
:100BD000EAFF4CC1E9FF03C051F102C050F101C06E
:100BE0004FF100C04EF1EACF53F1E9CF52F1D88274
:100BF000010EEA6E540EE96E03C05BF102C05AF1B9
:100C000001C059F100C058F101015F6B5E6B010E2C
:100C10005D6F6E0E5C6F000122DE53C1EAFF52C1B0
:100C2000E9FF4BC1EAFF4AC1E9FF55C1ECFFED52B4
:100C300054C1EFFF53D00101080E4125016E000E93
:100C40004221036E01C04AF14B6FEACF4DF1E9CF6B
:100C50004CF1D89246C15BF145C15AF144C159F1FA
:100C600043C158F15F6B010E5E6F510E5D6F800ED8
:100C70005C6F0001F4DD4DC1EAFF4CC1E9FF03C028
:100C800051F102C050F101C04FF100C04EF1EACF66
:100C900053F1E9CF52F1D882010EEA6E540EE96E9B
:100CA00003C05BF102C05AF101C059F100C058F114
:100CB00001015F6B5E6B010E5D6F6D0E5C6F00017D
:100CC000CEDD53C1EAFF52C1E9FF4BC1EAFF4AC181
:100CD000E9FF55C1ECFFED5254C1EFFF0101496B33
:100CE000460E486F050E4125E96E000E4221EA6E60
:100CF000ECCF4BF1ED52EFCF4AF1460E4A5F000EBA
:100D00004B5B050E4125E96E000E4221EA6EECCFE9
:100D100003F0ED52EFCF01F04951035C23E303E10F
:100D20000150485D1FE249C14DF148C14CF100013D
:100D30000BDD0101479101B0478147A107D0850E26
:100D40004427E20E4523010E462308D0800E432798
:100D5000330E4423E10E4523010E4623482BD8B41D
:100D6000492BCFD7070E4125016E000E4221036E9D
:100D700001C04AF14B6FEACF4DF1E9CF4CF1D89267
:100D800046C15BF145C15AF144C159F143C158F123
:100D90005F6B010E5E6F510E5D6F800E5C6F000128
:100DA0005EDD4DC1EAFF4CC1E9FF03C051F102C055
:100DB00050F101C04FF100C04EF1040E01014E2769
:100DC000000E4F2350235123EACF53F1E9CF52F1C4
:100DD000D882010EEA6E540EE96E51C15BF150C12A
:100DE0005AF14FC159F14EC158F15F6B5E6B5D6BAB
:100DF000070E5C6F000133DD53C1EAFF52C1E9FF0A
:100E00004BC1EAFF4AC1E9FF54C1EFFF010143C1F1
:100E100000F044C101F045C102F046C103F00001F9
:100E20004CEF16F001014A514C03F3CF01F0F4CF1F
:100E300000F04D03F35000264B514C03F3500020BB
:100E4000026E000107EF09F00101479147934153FA
:100E500003E14253D8B4E5D141C1E9FF42C1EAFF01
:100E6000EFCF43F1ECCF44F1ECCF45F1ECCF46F1BD
:100E7000D89246C15BF145C15AF144C159F143C111
:100E800058F15F6B010E5E6F510E5D6F800E5C6FEF
:100E90000001E5DC03C04BF102C04AF101C049F199
:100EA00000C048F1040E01014827000E49234A23DF
:100EB0004B23D882010EEA6E4C0EE96E4BC15BF1FA
:100EC0004AC15AF149C159F148C158F15F6B5E6B93
:100ED0005D6B070E5C6F0001C2DC4CC16EF06D6B88
:100EE000460E6C6F010147B173D046BF0BD046511F
:100EF000010823E307E14551E2081FE303E1445100
:100F000084081BE347A319D0D89246C15BF145C1C1
:100F10005AF144C159F143C158F15F6B010E5E6F44
:100F2000510E5D6F800E5C6F000199DC01C070F0A6
:100F300000C06FF001014CD029D046BF0FD0465100
:100F4000010824E30BE14551E10820E307E14451A6
:100F500033081CE303E143517F0818E3D89246C1EC
:100F60005BF145C15AF144C159F143C158F15F6B7E
:100F7000010E5E6F510E5D6F800E5C6F00016FDCC5
:100F800001C070F000C06FF0010122D047A309D06A
:100F9000000E435F850E445BE20E455B010E465B2F
:100FA00008D0800E435F330E445BE10E455B010EBB
:100FB000465B00016C2BD8B46D2B6DC04DF16CC03D
:100FC0004CF1A4EC03F00101479301B047838BD7A8
:100FD00000016B6B010147B198D0000E47B3010EC1
:100FE000486F6BC04FF1506F000108DCEACF4AF147
:100FF000E9CF49F10101536B526B516B01C050F1C4
:10100000576B010E566F510E556F800E546F0001D5
:1010100054EC03F04AC1EAFF49C1E9FF010146BFB0
:101020000FD04651035C0EE30BE14551025C0AE32D
:1010300007E14451015C06E303E10050435D02E235
:1010400064D062D0000E47B3010E486F6BC04FF101
:10105000506F0001FEEC03F0EACF4AF1E9CF49F10D
:101060000101536B526B516B01C050F1576B010E74
:10107000566F510E556F800E546F000154EC03F003
:101080004AC1EAFF49C1E9FF010146BF3DD0035013
:10109000465D3AE30BE10250455D36E307E101505E
:1010A000445D32E303E10050435D2EE3000E47B39D
:1010B000010E486F6BC04FF1506F0001FEEC03F062
:1010C000EACF4AF1E9CF49F10101536B526B516B01
:1010D00001C050F1576B010E566F510E556F800EC7
:1010E000546F000154EC03F04AC1EAFF49C1E9FF23
:1010F00000500101435F0150445B0250455B0350C7
:10110000465B00016B2B010166D7D89246C15BF1AB
:1011100045C15AF144C159F143C158F15F6B010E09
:101120005E6F510E5D6F800E5C6F00012FEC04F05E
:1011300000C06AF00101536B526B516B6AC050F1F1
:10114000576B010E566F510E556F800E546F000194
:1011500054EC03F000500101435F0150445B025026
:10116000455B0350465BD89246C15BF145C15AF1DD
:1011700044C159F143C158F15F6B5E6B0E0E5D6F58
:10118000100E5C6F00012FEC04F000C069F001014B
:101190004B6B4A6B496B69C048F14BC153F14AC173
:1011A00052F149C151F169C050F1576B566B0E0EA7
:1011B000556F100E546F000154EC03F00050010104
:1011C000435F0150445B0250455B0350465BD8923D
:1011D00046C15BF145C15AF144C159F143C158F1CF
:1011E0005F6B5E6B5D6B3C0E5C6F00012FEC04F07F
:1011F00000C068F00101496B68C048F149C14BF17A
:1012000068C04AF14D6B3C0E4C6F00010BD601508B
:101210000101435F0250445B000E455B465B43C1E6
:1012200067F0670E016E000E026E000162EF16F0AD
:10123000060E01014F6F010E506F00012EEC01F000
:1012400001014251000A00010BE0010A10E0030A0B
:1012500015E0010A1AE0070A1FE0010A24E02AD07B
:10126000040EF66E000EF76E77EC01F029D0100E2A
:10127000F66E000EF76E77EC01F022D01A0EF66EC5
:10128000000EF76E77EC01F01BD0240EF66E000E08
:10129000F76E77EC01F014D02E0EF66E000EF76E9E
:1012A00077EC01F00DD0360EF66E000EF76E77EC8F
:1012B00001F006D0420EF66E000EF76E77EC01F0EC
:1012C00028EF18F0EF5210E0EACF42F1E9CF41F1F8
:1012D000EFCF4EF141EC01F042C1EAFF41C1E9FF1D
:1012E000E92AD8B4EA2AEED7120001018951D8B40C
:1012F00071D0006E8D51D8B46DD0002604E3810EFC
:10130000002668E204D07F0E005E64E363E08AC1D9
:1013100091F18E51911B8A8F8E8F8C519003F4CF57
:1013200093F18B518F03F4CF03F0F3CF92F190033D
:10133000F3509327F4509223000E03228C518F0315
:10134000F3509327F4509223000E026A03220222E4
:101350008A519003F3509227F4500322000E022288
:101360008A518F03F3500326F4500222000E016AC3
:1013700001228C518E03F3509227F4500322000E69
:10138000022201228B518E03F3500326F4500222D5
:10139000000E01228A518E03F3500226F4500122DE
:1013A000002A01BE05D09237033602360136000608
:1013B000000E92AF0AD0032A02220122015005E159
:1013C000025003E1035001E1002A91BF018E91AF69
:1013D000019E04D0006A016A026A036A00011200D9
:1013E0008E0E006E8AC101F089C102F0036A0152BB
:1013F00009E102C001F0026A080E005E015202E13A
:10140000006A08D0D89001BE04D00236013600062A
:10141000F9D7019E120001017551D8B4A5D0816F92
:101420007951D8B4A1D0815F05E37F0E8127D8B070
:101430009BD006D0810E815FD8A096D0D8B494D02E
:1014400081C100F0016A026A036A806B76C17FF194
:101450007F8F77C17EF178C17DF1190E816F7C514C
:101460007D5F0DE2010E7E5F0AE27F5F08E2805F32
:1014700006E2802B7F2B7E2B7C517D2728D07B5151
:101480007E5F12E2010E7F5F0FE2805F0DE2802B34
:101490007F2B7B517E277C517D2719E37E2B17E123
:1014A0007F2B15E1802B13D07A5180097F5F0EE2EC
:1014B000010E805F0BE2802B7A5180097F277B51E0
:1014C0007E27E9E37F2BE7E1802BE5D70380812F9F
:1014D00001D00BD0D8907D377E377F378037D890BA
:1014E0000336023601368237BAD782A106D0D890A9
:1014F000013202320332823302D0000635E082BF6D
:101500001ED0D8907D377E377F3780377C517D5F06
:1015100007E2010E7E5F04E27F5F02E2805F1AE372
:101520007B517E5F05E2010E7F5F02E2805F12E386
:101530007A5180097F5F03E2010E805F0BE3032A8B
:1015400009E1022A07E1012A05E1002A0DE0013242
:101550000232033276C181F17A51811B81AF02D010
:10156000018E06D0019E04D0006A016A026A036AF5
:1015700000011200800ED8A202D001018E1B0101D1
:10158000936B946B8AC192F18E51921B8951D8B49E
:10159000DFD0916F006E8D51D8B4E3D0915FD8B495
:1015A00083D03EE38EC197F1978F8FC196F190C1A2
:1015B00095F1946BD8909733963395339433912F5C
:1015C000F8D792AF03D09381E0D093919191938912
:1015D000010EEA6E8C0EE96EEBD0939992BF0AD0A1
:1015E00091A113D09733963395339433002AD8B40E
:1015F000C7D00BD097BF0CD0D8909437953796377B
:1016000097370006D8B4BCD0F5D7938D6DD0939D95
:101610008AC192F18AAF02D0978FABD0979FA9D0A1
:101620008DC191F18DC100F08951915F8AC197F10F
:10163000978F8BC196F18CC195F1946BD8909733AD
:10164000963395339433912FF8D792AF03D0938389
:101650009CD093939191938B010EEA6E900EE96E5C
:10166000A7D0939B92BF0AD091A113D09733963302
:1016700095339433002AD8B483D00BD097BF0CD0C5
:10168000D89094379537963797370006D8B478D0E6
:10169000F5D7938F29D0939F8EC192F18EAF02D050
:1016A000978F67D0979F65D08EC197F1978F8FC125
:1016B00096F190C195F192AF04D0979F938565D034
:1016C0009395946B9191010EEA6E8C0EE96E70D039
:1016D00092BF1CD08AC192F191A106D09733963364
:1016E00095339433002A4CE094AF0BD0952B09E14D
:1016F000962B07E1972B05E1973396339533002A14
:101700003FE093BD84D793BFC6D71CD0800E971BF4
:1017100097AF04D03AD08EC192F10AD08AC192F12B
:10172000975306E1965304E1955302E1006A21D0F4
:1017300097BF08D0D8909437953796379737002EB3
:10174000F7D71ED092AF02D0978F13D0979F11D0AA
:101750008DC100F08EC197F18FC196F190C195F1C6
:1017600008D089C100F08AC197F18BC196F18CC174
:1017700095F197C101F096C102F095C103F034D004
:10178000006A016A026A036A2FD0946B951F961F44
:10179000971F941F942B05E1952B03E1962B01E1F4
:1017A000972B93B112D793B354D793B589D7B3D7A7
:1017B000EF50952705E3962B03E1972BD8B4918141
:1017C000ED52EF50962703E3972BD8B49181ED5259
:1017D000EF50EFBE01D0800A9727D8B0918193B91E
:1017E000FCD693BB3ED774D7000112000101486BB1
:1017F000476B466B7F0E456F4C6B4B6B4A6B496B6F
:101800004D814D934D954F6B4151421105E1006A59
:10181000016A026A036A0FD14F514F2B036A4125B7
:10182000E96E42510320EA6EEFCF4EF14E53D8B429
:10183000C5D04DA10FD04E5120080CE04D914E5116
:101840002B0803E14D93ADD005D04E512D0802E198
:101850004D83A7D04DB107D04E512E0804E14DB5B0
:1018600002D04D859ED04DB199D04E512F08D8B0A1
:1018700095D04E513908D8A091D0300E4E5F4DA56D
:1018800053D048C18CF147C18BF146C18AF145C1A3
:1018900089F1906B8F6B200E8E6F820E8D6F000121
:1018A00024DD03C048F102C047F101C046F100C089
:1018B00045F101018A6B4EC189F1000191DD03C040
:1018C00053F102C052F101C051F100C050F103C008
:1018D00078F102C077F101C076F100C075F148C11E
:1018E0007CF147C17BF146C17AF145C179F193DDC5
:1018F000D8924CC18CF14BC18BF14AC18AF149C1DC
:1019000089F103C090F102C08FF101C08EF100C0D7
:101910008DF130DE03C04CF102C04BF101C04AF141
:1019200000C049F139D001018C6B8B6B200E8A6F9E
:10193000820E896F4CC190F14BC18FF14AC18EF17B
:1019400049C18DF10001D1DC03C053F102C052F155
:1019500001C051F100C050F101018A6B4EC189F103
:1019600000013EDDD89253C18CF152C18BF151C1BF
:101970008AF150C189F103C090F102C08FF101C01A
:101980008EF100C08DF1F6DD03C04CF102C04BF1C9
:1019900001C04AF100C049F105D001014DB101D0AB
:1019A0000DD0000101014F514F2B036A4125E96E13
:1019B00042510320EA6EEFCF4EF138D74DA319D034
:1019C0008C6B8B6B800E8A6F7F0E896F4CC190F190
:1019D0004BC18FF14AC18EF149C18DF1000185DC07
:1019E00003C04CF102C04BF101C04AF100C049F103
:1019F00001014351441117E04F530CE04F0743C11D
:101A0000E9FF44C1EAFF4F514125EF6E000E42212C
:101A1000EC6E09D043C1E9FF44C1EAFF42C1ECFFCB
:101A2000ED5241C1EFFF49C100F04AC101F04BC185
:101A300002F04CC103F00001120086C18DF10101DA
:101A40008A518D1B8DAF05D0D894D89086BFD88091
:101A50002FD086C18DF189C18EF185518E5F06E050
:101A60008DAF26D0D850010AD86E22D08AC18EF10F
:101A700086518E5F06E08DAF1BD0D850010AD86E1C
:101A800017D08BC18EF187518E5F06E08DAF10D0DD
:101A9000D850010AD86E0CD08CC18EF188518E5F5F
:101AA00006E08DAF05D0D850010AD86E01D0D8908D
:101AB000000112008E0E006E01018551005E86C18C
:101AC00002F087C101F0028E005209E0D890025264
:101AD00002E1015204E002320132002EF7D786AF54
:101AE00005D0011E021E012AD8B4022A00011200EC
:101AF00001015C9150C155F14FC154F14EC153F1F8
:101B00004DC152F150C188F14FC187F14EC186F1EC
:101B10004DC185F18C6B8B6B8A6B896B00018DDFFE
:101B200006E301015C815351800A536F000155C1E6
:101B300088F154C187F153C186F152C185F1010189
:101B40008C6B8B6B8A6B8E0E896F000176DF01E2E6
:101B500017E155C188F154C187F153C186F152C1D3
:101B600085F1A8DF02C08AF101C089F139DC03C028
:101B700059F102C058F101C057F100C056F1CED062
:101B800055C188F154C187F153C186F152C185F125
:101B9000800E01018C6F960E8B6F180E8A6F960E59
:101BA000896F00014ADFD8A0B1D055C18CF154C172
:101BB0008BF153C18AF152C189F10101906B8F6B96
:101BC0008E6B700E8D6F000175EC09F003C088F10B
:101BD00002C087F101C086F100C085F16BDF02C051
:101BE0005BF101C05AF155C18CF154C18BF153C165
:101BF0008AF152C189F10101906B8F6B8E6B700E6F
:101C00008D6F000175EC09F003C060F102C05FF157
:101C100001C05EF100C05DF15BC18AF15AC189F17A
:101C2000F0EC09F0D88260C18CF15FC18BF15EC12C
:101C30008AF15DC189F103C090F102C08FF101C04A
:101C40008EF100C08DF196DC01018C6B8B6B8A6B81
:101C50008E0E896F03C090F102C08FF101C08EF12A
:101C600000C08DF1000175EC09F003C055F102C010
:101C700054F101C053F100C052F15BC18AF15AC165
:101C800089F1F0EC09F001018C6B8B6B8A6B8E0E85
:101C9000896F03C090F102C08FF101C08EF100C0C6
:101CA0008DF1000175EC09F003C059F102C058F143
:101CB00001C057F100C056F155C188F154C187F1F8
:101CC00053C186F152C185F1F5DE02C08AF101C02F
:101CD00089F1F0EC09F0D89259C18CF158C18BF11F
:101CE00057C18AF156C189F103C090F102C08FF14A
:101CF00001C08EF100C08DF13DDC03C059F102C07E
:101D000058F101C057F100C056F108D055C159F142
:101D100054C158F153C157F152C156F155C188F120
:101D200054C187F153C186F152C185F1C3DE02C0AF
:101D30008AF101C089F1F0EC09F0D88255C18CF12B
:101D400054C18BF153C18AF152C189F103C090F1A2
:101D500002C08FF101C08EF100C08DF10BDC03C019
:101D600055F102C054F101C053F100C052F101011C
:101D70005CA103D05751800A576F55C188F154C1F7
:101D800087F153C186F152C185F18C6B8B6B8A6BE5
:101D9000896B000152DE3CE001015CA11CD0515373
:101DA0001AE1D88259C18CF158C18BF157C18AF11F
:101DB00056C189F1906B8F6B8E6B7F0E8D6F00011A
:101DC000BAEC0AF003C059F102C058F101C057F152
:101DD00000C056F101015CB11CD0512D1AD0D8922F
:101DE00059C18CF158C18BF157C18AF156C189F1A3
:101DF000906B8F6B8E6B7F0E8D6F0001BAEC0AF0CB
:101E000003C059F102C058F101C057F100C056F1AA
:101E1000010150C188F14FC187F14EC186F14DC11A
:101E200085F18C6B8B6B8A6B896B000106DE06E19A
:101E30000101596B586B576B566B000156C100F08E
:101E400057C101F058C102F059C103F034EF0FF04F
:101E50004CC150F14BC14FF14AC14EF149C14DF156
:101E60000101516B000144D6120001016A6B696BDC
:101E7000686B7F0E676F7E0E716F800E726F736B73
:101E8000746B7A0E756F2A0E766FAA0E776FA30E9B
:101E9000786F750E796FB60E7A6F090E7B6FB40E80
:101EA0007C6F6F0E7D6F4F0E7E6FB60E7F6FAA0E2A
:101EB000806F690E816F8B0E826FF60E836FE80E56
:101EC000846F5EC188F15DC187F15CC186F15BC141
:101ED00085F18C6B8B6B8A6B896B0001AEDD05E342
:101EE00001015C51800A5C6F00015EC18CF15DC133
:101EF0008BF15CC18AF15BC189F1830E0101906FA6
:101F0000F90E8F6F220E8E6F7E0E8D6F000175ECB5
:101F100009F003C088F102C087F101C086F100C05A
:101F200085F1C8DD01C06BF15EC18CF15DC18BF143
:101F30005CC18AF15BC189F1830E0101906FF90EDA
:101F40008F6F220E8E6F7E0E8D6F000175EC09F083
:101F500003C088F102C087F101C086F100C085F19D
:101F600001018A6B6BC189F10001F0EC09F0D882A4
:101F700088C18CF187C18BF186C18AF185C189F155
:101F800003C090F102C08FF101C08EF100C08DF14D
:101F9000BAEC0AF003C070F102C06FF101C06EF13B
:101FA00000C06DF1030E01016B176B5303E06B5121
:101FB00002081DE170C18CF16FC18BF16EC18AF115
:101FC0006DC189F1DB0E906F0F0E8F6F490E8E6F12
:101FD0007F0E8D6F000175EC09F003C066F102C041
:101FE00065F101C064F100C063F16FD001016B2D98
:101FF00037D0D8828C6B8B6B8A6B7F0E896F70C1E8
:1020000090F16FC18FF16EC18EF16DC18DF1000144
:10201000BAEC0AF003C088F102C087F101C086F172
:1020200000C085F103C08CF102C08BF101C08AF1C0
:1020300000C089F1DB0E0101906F0F0E8F6F490E0A
:102040008E6F7F0E8D6F000175EC09F003C066F195
:1020500002C065F101C064F100C063F136D0010136
:10206000D88270C18CF16FC18BF16EC18AF16DC1E4
:1020700089F1906B8F6B8E6B7F0E8D6F0001BAECC8
:102080000AF003C088F102C087F101C086F100C0E8
:1020900085F103C08CF102C08BF101C08AF100C050
:1020A00089F1DB0E0101906F0F0E8F6F490E8E6F5D
:1020B0007F0E8D6F000175EC09F003C066F102C060
:1020C00065F101C064F100C063F10101626B616BF5
:1020D000606B7F0E5F6F66C18CF165C18BF164C16F
:1020E0008AF163C189F166C190F165C18FF164C164
:1020F0008EF163C18DF1000175EC09F003C066F14A
:1021000002C065F101C064F100C063F101016C6BB4
:102110006C51040866E36AC18CF169C18BF168C136
:102120008AF167C189F166C190F165C18FF164C11F
:102130008EF163C18DF1000175EC09F003C06AF105
:1021400002C069F101C068F100C067F101016C5182
:10215000040DF350036A710FE96E010E0320EA6E5D
:10216000EFCF85F1ECCF86F1ECCF87F1ECCF88F1A2
:1021700088C18CF187C18BF186C18AF185C189F153
:102180006AC190F169C18FF168C18EF167C18DF1AB
:10219000000175EC09F0EACF86F1E9CF85F1D8921C
:1021A00062C18CF161C18BF160C18AF15FC189F1BB
:1021B00003C090F102C08FF101C08EF100C08DF11B
:1021C000BAEC0AF086C1EAFF85C1E9FF03C062F1FB
:1021D00002C061F101C060F100C05FF101016C2B30
:1021E00097D76B51020802E06B2D03D06051800A33
:1021F000606F5FC100F060C101F061C102F062C1B7
:1022000003F000011200D88256C18CF155C18BF148
:1022100054C18AF153C189F1DB0E0101906F0F0E99
:102220008F6F490E8E6F7F0E8D6F0001BAEC0AF032
:1022300003C05AF102C059F101C058F100C057F172
:1022400003C05EF102C05DF101C05CF100C05BF152
:102250000CDE120048C15EF147C15DF146C15CF180
:1022600045C15BF102DE03C04CF102C04BF101C07D
:102270004AF100C049F14CC188F14BC187F14AC114
:1022800086F149C185F101018C6B8B6B8A6B896B7F
:1022900000011DEC0DF009E1F60E006E400E016E1E
:1022A000970E026ECE0E036E23D048C156F147C181
:1022B00055F146C154F145C153F1A5DF03C050F1BA
:1022C00002C04FF101C04EF100C04DF150C178F194
:1022D0004FC177F14EC176F14DC175F14CC17CF122
:1022E0004BC17BF14AC17AF149C179F10BEC0AF09B
:1022F00012006AC188F169C187F168C186F167C1BE
:1023000085F101018C6B8B6B8A6B896B00011DEC75
:102310000DF001E205E1006A016A026A036A7BD0FE
:102320006AC16EF169C16DF168C16CF167C16BF191
:10233000010E0101746F6B0E736F73C1E9FF74C1FD
:10234000EAFFEF50786B776F7F0E7727000E7823C8
:10235000D8907831773174C1EAFF73C1E9FFEF6E2D
:102360006EC172F16DC171F16CC170F16BC16FF131
:102370006AC178F169C177F168C176F167C175F119
:102380006EC17CF16DC17BF16CC17AF16BC179F1E9
:1023900000010BEC0AF0D8926EC18CF16DC18BF18B
:1023A0006CC18AF16BC189F103C090F102C08FF159
:1023B00001C08EF100C08DF1BAEC0AF003C06EF1DD
:1023C00002C06DF101C06CF100C06BF1010173C17D
:1023D000E9FF74C1EAFFEF0672C188F171C187F1AC
:1023E00070C186F16FC185F16EC18CF16DC18BF149
:1023F0006CC18AF16BC189F100011DEC0DF0D8B4FC
:1024000002D00101ADD76FC100F070C101F071C100
:1024100002F072C103F07BEF12F00101629150C132
:1024200055F14FC154F14EC153F14DC152F150C15C
:1024300088F14FC187F14EC186F14DC185F18C6B9A
:102440008B6B8A6B896B00011DEC0DF006E30101BB
:1024500062815351800A536F00010101886B876BC1
:10246000866B7E0E856F55C18CF154C18BF153C1C3
:102470008AF152C189F100011DEC0DF048E3D882C8
:1024800001018C6B8B6B8A6B7F0E896F55C190F14C
:1024900054C18FF153C18EF152C18DF10001BAECDC
:1024A0000AF003C066F102C065F101C064F100C02A
:1024B00063F103C08CF102C08BF101C08AF100C04E
:1024C00089F10101906B8F6B8E6B7E0E8D6F000119
:1024D00075EC09F003C066F102C065F101C064F15A
:1024E00000C063F103C06AF102C069F101C068F184
:1024F00000C067F1FED603C055F102C054F101C01F
:1025000053F100C052F1020E01015127000155C1E3
:102510008CF154C18BF153C18AF152C189F155C17B
:1025200090F154C18FF153C18EF152C18DF175EC10
:1025300009F003C061F102C060F101C05FF100C0A9
:102540005EF1370E01018C6FBF0E8B6F7D0E8A6FAF
:10255000896F61C190F160C18FF15FC18EF15EC181
:102560008DF1000175EC09F003C066F102C065F160
:1025700001C064F100C063F1D89203C08CF102C0C5
:102580008BF101C08AF100C089F13D0E0101906F0D
:10259000AA0E8F6F930E8E6F810E8D6F0001BAECB5
:1025A0000AF003C059F102C058F101C057F100C050
:1025B00056F159C18CF158C18BF157C18AF156C1FE
:1025C00089F161C190F160C18FF15FC18EF15EC18F
:1025D0008DF175EC09F003C066F102C065F101C030
:1025E00064F100C063F1D89203C08CF102C08BF19A
:1025F00001C08AF100C089F1EE0E0101906F500E0A
:102600008F6F330E8E6F810E8D6F0001BAEC0AF062
:1026100003C059F102C058F101C057F100C056F192
:1026200001018C6B8B6B8A6B7F0E896F61C190F19E
:1026300060C18FF15FC18EF15EC18DF1000175EC5B
:1026400009F003C066F102C065F101C064F100C089
:1026500063F1D89203C08CF102C08BF101C08AF102
:1026600000C089F10A0E0101906F8D0E8F6FB10EBF
:102670008E6F810E8D6F0001BAEC0AF003C05DF120
:1026800002C05CF101C05BF100C05AF15DC18CF188
:102690005CC18BF15BC18AF15AC189F161C190F1D2
:1026A00060C18FF15FC18EF15EC18DF175EC09F0F3
:1026B00003C066F102C065F101C064F100C063F1BE
:1026C000D89203C08CF102C08BF101C08AF100C026
:1026D00089F1EE0E0101906F500E8F6F330E8E6FE9
:1026E000810E8D6F0001BAEC0AF003C05DF102C0EB
:1026F0005CF101C05BF100C05AF155C18CF154C1CD
:102700008BF153C18AF152C189F159C190F158C17D
:102710008FF157C18EF156C18DF175EC09F003C0F0
:1027200066F102C065F101C064F100C063F103C04D
:1027300078F102C077F101C076F100C075F15DC19A
:102740007CF15CC17BF15BC17AF15AC179F10BEC90
:102750000AF003C059F102C058F101C057F100C09E
:1027600056F1010151A32ED08C6B8B6B8A6B800EBE
:10277000896F59C190F158C18FF157C18EF156C17F
:102780008DF1000175EC09F0D882DB0E01018C6F30
:102790000F0E8B6F490E8A6F7F0E896F03C090F109
:1027A00002C08FF101C08EF100C08DF10001BAECC2
:1027B0000AF003C059F102C058F101C057F100C03E
:1027C00056F1010162A103D05751800A576F51A100
:1027D0001DD0D882DB0E8C6F0F0E8B6F490E8A6F67
:1027E0007F0E896F59C190F158C18FF157C18EF199
:1027F00056C18DF10001BAEC0AF003C059F102C0D4
:1028000058F101C057F100C056F1010156C100F066
:1028100057C101F058C102F059C103F000011EEF89
:1028200014F048C150F147C14FF146C14EF145C1C6
:102830004DF1010E0101516F0001EFD503C04CF1C4
:1028400002C04BF101C04AF100C049F149C100F09A
:102850004AC101F04BC102F04CC103F01200090063
:10286000F6CF42F1F7CF43F1F5CF4EF141EC01F055
:1028700042C1F6FF43C1F7FF0101412F01D002D051
:102880000001EDD70001120001014E51B6084E6F54
:10289000036A4FC152F14F8FD8904F3350335133A9
:1028A00003320232013200324E2FF6D752AF0BD034
:1028B000001E011E021E031E002AD8B4012AD8B42D
:1028C000022AD8B4032A0001DCEF14F0D8B204D0F5
:1028D000010EEA6E560EE96E006A016A026A036A28
:1028E0000101566B576B586B596B5551541153116D
:1028F00052112CE0200E5A6FD8904E374F37503778
:10290000513756375737583759375551595D08E1C0
:102910005451585D05E15351575D02E15251565DE6
:102920000FE35251565F5351D8A0533D575F545156
:10293000D8A0543D585F5551D8A0553D595FD88017
:1029400000360136023603365A2FD6D756C1EFFF6E
:1029500057C1ECFF58C1ECFF59C1ECFF0001120058
:10296000E9500101466F4551486F1CE044C18CF1AC
:1029700043C18BF142C18AF141C189F1906B8F6BE8
:10298000200E8E6F820E8D6F000175EC09F003C072
:1029900044F102C043F101C042F100C041F1010124
:1029A000482FE4D744C151F143C150F142C14FF126
:1029B00041C14EF1000168D703C044F102C043F1A8
:1029C00001C042F100C041F1010144AF0DD0460702
:1029D000468B411F421F431F441F412BD8B4422B3B
:1029E000D8B4432BD8B4442B3B0E4D6F9A0E4C6F8A
:1029F000CA0E4B6F4A6B0A0E486F4551D8B4462B2E
:102A0000D882010EEA6E410EE96E44C151F143C114
:102A100050F142C14FF141C14EF14DC155F14CC190
:102A200054F14BC153F14AC152F100014FDF015043
:102A3000005213E101014529485DD8A402D00001EC
:102A40000CD046510DE00F0B485D01E044E246BF5B
:102A500042D046BD05D0200E37D0200E01014617CA
:102A600046AB0FD0469B4551D8A446070050466F51
:102A70002D0E4E6F000141EC01F001014651006E38
:102A8000466B4551485D0DE10050466F2E0E4E6F6E
:102A9000000141EC01F001014651006E200E461785
:102AA000000E300E46AB10D0469B4551D8A44607C9
:102AB0000050466F2D0E4E6F000141EC01F00101F8
:102AC0004651006E466B300E002600C04EF10001EC
:102AD00041EC01F00101D8924DC151F14CC150F1CE
:102AE0004BC14FF14AC14EF1556B546B536B0A0EFB
:102AF000526F0001EBDE03C04DF102C04CF101C08A
:102B00004BF100C04AF10101482F7AD700011200B1
:102B1000F86AD09E700ED36ED350046AB8960C0E2D
:102B2000AF6EA20EAC6E900EAB6E0B900B920C6A59
:102B30000D6A666B656BC150C00B0F09C16E070E45
:102B4000B46E010E646F990E636F060E01019A6FE9
:102B5000630E996F9C6B9B6B00011FD002000500F8
:102B60000015010D484F52413A2020203A20203ACA
:102B700020200046454348413A04C0201B802D20B8
:102B8000202D323020200020200020200020200096
:102B900020200020200020200000000EF86E2B0EC8
:102BA000F76E5C0EF66E0900F550006E000A13E039
:102BB0000900F550016EE8BE05D00F0BEA6E090062
:102BC000F550E96E01BC090001AC0900F550EE6E4C
:102BD000004EE9D7F9D7F86A700ED36ED350E3EF01
:102BE00000F0320E01014F6F000145EC00F04A0E7B
:102BF000F66E000EF76E77EC01F0080E0101416FE2
:102C0000FA0E4F6F000145EC00F00101412FF8D79B
:102C10006A0EF66E000EF76E000177EC01F09EAAC8
:102C2000C9EF25F0F5EF01F00152D8B4C9EF25F056
:102C3000A10E746F670E736F180E726F830E716F33
:102C4000CB0E786FA10E776FD00E766F850E756FF5
:102C500006EF03F001C003F113EF03F001C002F12E
:102C600020EF03F001C001F12DEF03F001C004F1EA
:102C70003AEF03F0010E015C0101056F000147EF1F
:102C800003F0640E01240101066F076B010E426F11
:102C9000416F0001A4EF04F003C000F102C0FFF097
:102CA00001C0FEF000C0FDF0B00EFD27B90EFE23FE
:102CB000FF0EFF2301010023426BFD0E416F000157
:102CC00024EF07F002C00CF101C00BF1020E01016C
:102CD0000B25E96E000E0C21EA6EEFCF4DF10A0EC6
:102CE0004E6F0001E8EC03F0300E01240101136F78
:102CF000020E0B25E96E000E0C21EA6EEFCF4DF1AE
:102D00000A0E4E6F0001E8EC03F0300E00240101C2
:102D1000146F010E0B25E96E000E0C21EA6EEFCF49
:102D20004DF10A0E4E6F0001E8EC03F0300E012465
:102D30000101166F010E0B25E96E000E0C21EA6EE3
:102D4000EFCF4DF10A0E4E6F0001E8EC03F0300EAC
:102D500000240101176F0BC1E9FF0CC1EAFFEFCF9F
:102D60004DF10A0E4E6F0001E8EC03F0300E012425
:102D70000101196F0BC1E9FF0CC1EAFFEFCF4DF163
:102D80000A0E4E6F0001E8EC03F0300E0024010142
:102D90001A6F020E0B25E96E000E0C21EA6EEFCFC2
:102DA0004DF10A0E4E6F0001E8EC03F0300E0124E5
:102DB0000101396F020E0B25E96E000E0C21EA6E3F
:102DC000EFCF4DF10A0E4E6F0001E8EC03F0300E2C
:102DD000002401013A6F010E0B25E96E000E0C2153
:102DE000EA6EEFCF4DF10A0E4E6F0001E8EC03F0F2
:102DF000300E012401013C6F010E0B25E96E000E1F
:102E00000C21EA6EEFCF4DF10A0E4E6F0001E8EC97
:102E100003F0300E002401013D6F0BC1E9FF0CC12E
:102E2000EAFFEFCF4DF10A0E4E6F0001E8EC03F020
:102E3000300E012401013F6F0BC1E9FF0CC1EAFF15
:102E4000EFCF4DF10A0E4E6F0001E8EC03F0300EAB
:102E500000240101406F030E0B25E96E000E0C21CA
:102E6000EA6EEFCF4DF10A0E4E6F0001E8EC03F071
:102E7000300E01240101226F030E0B25E96E000EB6
:102E80000C21EA6EEFCF4DF10A0E4E6F0001E8EC17
:102E900003F0300E00240101236F040E0B25E96EB0
:102EA000000E0C21EA6E010EEF24426F4D6F0A0EE8
:102EB0004E6F0001E8EC03F0300E01240101256F94
:102EC000040E0B25E96E000E0C21EA6E010EEF24B4
:102ED000426F4D6F0A0E4E6F0001E8EC03F0300EAA
:102EE00000240101266F050E0B25E96E000E0C2152
:102EF000EA6EECCF42F1ED52EFCF41F142C151F118
:102F000041C150F1536B0A0E526F000181EC03F086
:102F100002C042F101C041F102C051F101C050F1C3
:102F20000101536B0A0E526F000181EC03F00101A5
:102F3000300E00242A6F050E0B25E96E000E0C21C1
:102F4000EA6EECCF42F1ED52EFCF41F142C151F1C7
:102F500041C150F1536B0A0E526F000181EC03F036
:102F60000101300E00242B6F040E0B25E96E000EBC
:102F70000C21EA6E010EEF24426F4D6F0A0E4E6F68
:102F80000001E8EC03F0300E01240101306F040E63
:102F90000B25E96E000E0C21EA6E010EEF24426F44
:102FA0004D6F0A0E4E6F0001E8EC03F0300E002466
:102FB0000101316F050E0B25E96E000E0C21EA6E42
:102FC000ECCF42F1ED52EFCF41F142C151F141C19D
:102FD00050F1536B0A0E526F000181EC03F002C0F6
:102FE00042F101C041F102C051F101C050F10101B3
:102FF000536B0A0E526F000181EC03F00101300E99
:103000000024366F050E0B25E96E000E0C21EA6ECA
:10301000ECCF42F1ED52EFCF41F142C151F141C14C
:1030200050F1536B0A0E526F000181EC03F0010165
:10303000300E0024366F070E0B25E96E000E0C21B2
:10304000EA6EEFCF41F141C142F1000118EF09F002
:10305000170E01014F6F010E506F00012EEC01F0B1
:10306000010EEA6E0D0EE96E62EC09F0170E010119
:103070004F6F020E506F00012EEC01F0010EEA6E50
:103080001C0EE96E62EC09F0010E0101426F2F0E79
:10309000416F446B436B0001F6EC0BF003C0F8F09A
:1030A00002C0F7F001C0F6F000C0F5F0FC6BA00E16
:1030B000FB6F7C0EFA6F890EF96FF8C088F1F7C0CC
:1030C00087F1F6C086F1F5C085F101018C6B8B6B41
:1030D0008A6B7F0E896F00011DEC0DF008E1F4C0D2
:1030E000C0F0F3C0BFF0F2C0BEF0F1C0BDF0F8C058
:1030F00088F1F7C087F1F6C086F1F5C085F10101CE
:103100008C6B8B6B8A6B800E896F00011DEC0DF050
:103110001BE1D89201018C6B8B6B780E8A6F830E4A
:10312000896FF4C090F1F3C08FF1F2C08EF1F1C05D
:103130008DF10001BAEC0AF003C0C0F002C0BFF08C
:1031400001C0BEF000C0BDF00101886B876B400E6E
:10315000866F800E856FF8C08CF1F7C08BF1F6C0DA
:103160008AF1F5C089F100011DEC0DF002E2D8A44E
:103170008CD101018C6B800E8B6F090E8A6F870ECC
:10318000896FF8C090F1F7C08FF1F6C08EF1F5C0ED
:103190008DF1000175EC09F003C044F102C043F168
:1031A00001C042F100C041F103C078F102C077F1E3
:1031B00001C076F100C075F101017C6B7B6B100ED4
:1031C0007A6F820E796F00010BEC0AF003C0C4F035
:1031D00002C0C3F001C0C2F000C0C1F0D892F8C074
:1031E0008CF1F7C08BF1F6C08AF1F5C089F10101CD
:1031F000906B8F6B100E8E6F820E8D6F0001BAEC8C
:103200000AF003C044F102C043F101C042F100C022
:1032100041F103C078F102C077F101C076F100C03E
:1032200075F101017C6B7B6B400E7A6F820E796FBA
:1032300000010BEC0AF003C0C8F002C0C7F001C0E7
:10324000C6F000C0C5F0FCC078F1FBC077F1FAC051
:1032500076F1F9C075F101017C6B7B6B7A6B810EA5
:10326000796F00010BEC0AF003C044F102C043F196
:1032700001C042F100C041F103C04CF102C04BF16A
:1032800001C04AF100C049F128EC0FF001018C6B3C
:103290008B6B8A6B810E896F03C090F102C08FF136
:1032A00001C08EF100C08DF1000175EC09F0EACF8C
:1032B00042F1E9CF41F1D882FCC08CF1FBC08BF127
:1032C000FAC08AF1F9C089F103C090F102C08FF110
:1032D00001C08EF100C08DF1BAEC0AF042C1EAFFE4
:1032E00041C1E9FF03C046F102C045F101C044F10C
:1032F00000C043F1EACF48F1E9CF47F1D89203C0CB
:103300008CF102C08BF101C08AF100C089F101018A
:10331000906B8F6B8E6B800E8D6F0001BAEC0AF094
:1033200048C1EAFF47C1E9FF03C046F102C045F1C9
:1033300001C044F100C043F103C078F102C077F14D
:1033400001C076F100C075F101017C6B7B6B400E12
:103350007A6F800E796F00010BEC0AF003C046F122
:1033600002C045F101C044F100C043F103C04CF17B
:1033700002C04BF101C04AF100C049F128EC0FF046
:10338000EACF44F1E9CF43F1D89201018C6B8B6B0A
:103390008A6B7F0E896F03C090F102C08FF101C06C
:1033A0008EF100C08DF10001BAEC0AF044C1EAFFD1
:1033B00043C1E9FF03C0CCF002C0CBF001C0CAF0AA
:1033C00000C0C9F0C8C08CF1C7C08BF1C6C08AF17B
:1033D000C5C089F1CCC090F1CBC08FF1CAC08EF1CD
:1033E000C9C08DF175EC09F0D882C4C08CF1C3C09E
:1033F0008BF1C2C08AF1C1C089F103C090F102C053
:103400008FF101C08EF100C08DF1BAEC0AF003C05B
:1034100044F102C043F101C042F100C041F1D89231
:1034200003C08CF102C08BF101C08AF100C089F1A8
:10343000F4C090F1F3C08FF1F2C08EF1F1C08DF1C4
:10344000BAEC0AF003C044F102C043F101C042F1FA
:1034500000C041F1D88203C08CF102C08BF101C0E1
:103460008AF100C089F10101906B8F6B700E8E6F35
:10347000830E8D6F0001BAEC0AF003C0C0F002C0E9
:10348000BFF001C0BEF000C0BDF0D882C0C08CF15A
:10349000BFC08BF1BEC08AF1BDC089F10101906B44
:1034A0008F6B8E6B7F0E8D6F0001BAEC0AF0CF0E22
:1034B00001018C6F040E8B6F0D0E8A6F790E896F70
:1034C00003C090F102C08FF101C08EF100C08DF1F8
:1034D000000175EC09F003C0D0F002C0CFF001C0CC
:1034E000CEF000C0CDF0D0C05EF1CFC05DF1CEC057
:1034F0005CF1CDC05BF135EC0FF0AE0E01018C6FCD
:10350000D70E8B6F740E8A6F750E896F03C090F1A2
:1035100002C08FF101C08EF100C08DF1000175EC89
:1035200009F0EACF42F1E9CF41F1D892940E0101BE
:103530008C6F170E8B6F190E8A6F710E896F03C017
:1035400090F102C08FF101C08EF100C08DF1000139
:10355000BAEC0AF042C1EAFF41C1E9FF03C046F1FB
:1035600002C045F101C044F100C043F1D0C056F1A2
:10357000CFC055F1CEC054F1CDC053F103EC11F0E2
:10358000E80E01018C6F630E8B6F030E8A6F7A0E4B
:10359000896F03C090F102C08FF101C08EF100C0AD
:1035A0008DF1000175EC09F0EACF48F1E9CF47F160
:1035B000D88246C18CF145C18BF144C18AF143C127
:1035C00089F103C090F102C08FF101C08EF100C0FB
:1035D0008DF1BAEC0AF048C1EAFF47C1E9FF03C028
:1035E00046F102C045F101C044F100C043F10101C0
:1035F0008C6B8B6B8A6B800E896FD0C090F1CFC0C3
:103600008FF1CEC08EF1CDC08DF1000175EC09F0C7
:1036100003C04CF102C04BF101C04AF100C049F1B6
:1036200003C05EF102C05DF101C05CF100C05BF15E
:1036300035EC0FF0C10E01018C6F730E8B6F6F0EA6
:103640008A6F780E896F03C090F102C08FF101C0BC
:103650008EF100C08DF1000175EC09F0EACF4AF15E
:10366000E9CF49F1D88246C18CF145C18BF144C103
:103670008AF143C189F103C090F102C08FF101C00A
:103680008EF100C08DF1BAEC0AF04AC1EAFF49C1DF
:10369000E9FF03C046F102C045F101C044F100C09A
:1036A00043F101018C6B8B6B8A6B800E896FD0C0EC
:1036B00090F1CFC08FF1CEC08EF1CDC08DF1000161
:1036C00075EC09F003C04EF102C04DF101C04CF1A0
:1036D00000C04BF103C056F102C055F101C054F1D6
:1036E00000C053F103EC11F0460E01018C6F7C0E0B
:1036F0008B6F270E8A6F7A0E896F03C090F102C01C
:103700008FF101C08EF100C08DF1000175EC09F060
:10371000EACF4CF1E9CF4BF1D88246C18CF145C1DB
:103720008BF144C18AF143C189F103C090F102C019
:103730008FF101C08EF100C08DF1BAEC0AF04CC1DE
:10374000EAFF4BC1E9FF03C046F102C045F101C0E9
:1037500044F100C043F103C08CF102C08BF101C001
:103760008AF100C089F1140E0101906F2E0E8F6F47
:10377000650E8E6F860E8D6F000175EC09F003C02B
:103780007CF002C07BF001C07AF000C079F001014A
:103790008C6B8B6B8A6B810E896F78C090F177C0D0
:1037A0008FF176C08EF175C08DF1000175EC09F0D6
:1037B000D8927CC08CF17BC08BF17AC08AF179C041
:1037C00089F103C090F102C08FF101C08EF100C0F9
:1037D0008DF1BAEC0AF003C044F102C043F101C01C
:1037E00042F100C041F1D88203C08CF102C08BF1DC
:1037F00001C08AF100C089F10101906B8F6B960EB8
:103800008E6F870E8D6F0001BAEC0AF003C084F052
:1038100002C083F001C082F000C081F0D0C05EF130
:10382000CFC05DF1CEC05CF1CDC05BF135EC0FF0E7
:10383000750E01018C6F590E8B6F4C0E8A6F7D0EC9
:10384000896F03C090F102C08FF101C08EF100C0FA
:103850008DF1000175EC09F0EACF42F1E9CF41F1B9
:10386000D882640E01018C6FB00E8B6F620E8A6F6E
:10387000770E896F03C090F102C08FF101C08EF105
:1038800000C08DF10001BAEC0AF042C1EAFF41C16B
:10389000E9FF03C046F102C045F101C044F100C098
:1038A00043F1D0C056F1CFC055F1CEC054F1CDC0D8
:1038B00053F103EC11F0E70E01018C6FE20E8B6FF8
:1038C0000F0E8A6F7B0E896F03C090F102C08FF1DB
:1038D00001C08EF100C08DF1000175EC09F0EACF56
:1038E00048F1E9CF47F1D89246C18CF145C18BF13F
:1038F00044C18AF143C189F103C090F102C08FF144
:1039000001C08EF100C08DF1BAEC0AF048C1EAFFA7
:1039100047C1E9FF03C046F102C045F101C044F1CF
:1039200000C043F101018C6B8B6B8A6B800E896F39
:10393000D0C090F1CFC08FF1CEC08EF1CDC08DF14F
:10394000000175EC09F003C04CF102C04BF101C05D
:103950004AF100C049F103C05EF102C05DF101C04F
:103960005CF100C05BF135EC0FF0360E01018C6F9D
:10397000720E8B6F5D0E8A6F770E896F03C090F1A8
:1039800002C08FF101C08EF100C08DF1000175EC15
:1039900009F0EACF4AF1E9CF49F1D88246C18CF16A
:1039A00045C18BF144C18AF143C189F103C090F153
:1039B00002C08FF101C08EF100C08DF1BAEC0AF0A7
:1039C0004AC1EAFF49C1E9FF03C046F102C045F11F
:1039D00001C044F100C043F101018C6B8B6B8A6B19
:1039E000800E896FD0C090F1CFC08FF1CEC08EF124
:1039F000CDC08DF1000175EC09F003C04EF102C09D
:103A00004DF101C04CF100C04BF103C056F102C0B2
:103A100055F101C054F100C053F103EC11F0600EF8
:103A200001018C6FDA0E8B6F010E8A6F750E896F34
:103A300003C090F102C08FF101C08EF100C08DF182
:103A4000000175EC09F0EACF4CF1E9CF4BF1D892C7
:103A500046C18CF145C18BF144C18AF143C189F162
:103A600003C090F102C08FF101C08EF100C08DF152
:103A7000BAEC0AF04CC1EAFF4BC1E9FF03C046F1C2
:103A800002C045F101C044F100C043F101018C6B5B
:103A90008B6B400E8A6F800E896FD0C090F1CFC0C3
:103AA0008FF1CEC08EF1CDC08DF1000175EC09F023
:103AB00003C050F102C04FF101C04EF100C04DF102
:103AC00003C05EF102C05DF101C05CF100C05BF1BA
:103AD00035EC0FF0270E01018C6FC00E8B6F300E8E
:103AE0008A6F760E896F03C090F102C08FF101C01A
:103AF0008EF100C08DF1000175EC09F0EACF4EF1B6
:103B0000E9CF4DF1D88246C18CF145C18BF144C15A
:103B10008AF143C189F103C090F102C08FF101C065
:103B20008EF100C08DF1BAEC0AF04EC1EAFF4DC132
:103B3000E9FF03C046F102C045F101C044F100C0F5
:103B400043F101018C6B8B6B400E8A6F800E896F85
:103B5000D0C090F1CFC08FF1CEC08EF1CDC08DF12D
:103B6000000175EC09F003C052F102C051F101C02F
:103B700050F100C04FF103C056F102C055F101C031
:103B800054F100C053F103EC11F08F0E01018C6F62
:103B9000FC0E8B6F410E8A6F750E896F03C090F11A
:103BA00002C08FF101C08EF100C08DF1000175ECF3
:103BB00009F0EACF50F1E9CF4FF1D89246C18CF12C
:103BC00045C18BF144C18AF143C189F103C090F131
:103BD00002C08FF101C08EF100C08DF1BAEC0AF085
:103BE00050C1EAFF4FC1E9FF03C080F002C07FF07F
:103BF00001C07EF000C07DF074C048F173C047F191
:103C000072C046F171C045F12AEC11F000C041F1DB
:103C10000150800A0101426F02C043F103C044F128
:103C200080C048F17FC047F17EC046F17DC045F1BC
:103C300000012AEC11F044C18CF143C18BF142C167
:103C40008AF141C189F103C090F102C08FF101C036
:103C50008EF100C08DF175EC09F003C044F102C093
:103C600043F101C042F100C041F103C048F102C07C
:103C700047F101C046F100C045F111EC14F003C05A
:103C800088F002C087F001C086F000C085F0D892AD
:103C900078C08CF177C08BF176C08AF175C089F15C
:103CA0000101906B8F6B160E8E6F850E8D6F00016C
:103CB000BAEC0AF001018C6B8B6B8A6B810E896FF9
:103CC00003C090F102C08FF101C08EF100C08DF1F0
:103CD000000175EC09F003C044F102C043F101C0DA
:103CE00042F100C041F1D89203C08CF102C08BF1C7
:103CF00001C08AF100C089F17CC090F17BC08FF1D6
:103D00007AC08EF179C08DF1BAEC0AF003C08CF064
:103D100002C08BF001C08AF000C089F001018C6BF9
:103D20008B6B8A6B800E896F88C090F187C08FF192
:103D300086C08EF185C08DF1000175EC09F003C0DD
:103D400044F102C043F101C042F100C041F103C09F
:103D500078F102C077F101C076F100C075F1010180
:103D60007C6B7B6B700E7A6F820E796F00010BECAF
:103D70000AF0D88201018C6B8B6B400E8A6F820E29
:103D8000896F03C090F102C08FF101C08EF100C0B5
:103D90008DF10001BAEC0AF003C044F102C043F116
:103DA00001C042F100C041F18CC078F18BC077F1C5
:103DB0008AC076F189C075F101017C6B7B6B700E56
:103DC0007A6F840E796F00010BEC0AF0D89244C12F
:103DD0008CF143C18BF142C18AF141C189F103C029
:103DE00090F102C08FF101C08EF100C08DF1BAECEC
:103DF0000AF003C044F102C043F101C042F100C027
:103E000041F1D88203C08CF102C08BF101C08AF16C
:103E100000C089F10101906B8F6B8E6B800E8D6FEE
:103E20000001BAEC0AF003C090F002C08FF001C0AC
:103E30008EF000C08DF001018C6B8B6B8A6B800E55
:103E4000896F88C090F187C08FF186C08EF185C0E0
:103E50008DF1000175EC09F003C044F102C043F19B
:103E600001C042F100C041F103C078F102C077F116
:103E700001C076F100C075F101017C6B7B6B700EA7
:103E80007A6F820E796F00010BEC0AF0D892010173
:103E90008C6B8B6B400E8A6F830E896F03C090F121
:103EA00002C08FF101C08EF100C08DF10001BAECAB
:103EB0000AF003C044F102C043F101C042F100C066
:103EC00041F18CC078F18BC077F18AC076F189C05E
:103ED00075F101017C6B7B6B700E7A6F840E796FCC
:103EE00000010BEC0AF0D89244C18CF143C18BF174
:103EF00042C18AF141C189F103C090F102C08FF142
:103F000001C08EF100C08DF1BAEC0AF003C044F19B
:103F100002C043F101C042F100C041F1D88203C0A8
:103F20008CF102C08BF101C08AF100C089F101015E
:103F3000906B8F6B8E6B800E8D6F0001BAEC0AF068
:103F400003C0A4F002C0A3F001C0A2F000C0A1F021
:103F5000010E0101426F380E416F446B436B00014B
:103F6000F6EC0BF003C0D4F002C0D3F001C0D2F0E5
:103F700000C0D1F0010E0101426F3B0E416F446B56
:103F8000436B0001F6EC0BF003C0E8F002C0E7F071
:103F900001C0E6F000C0E5F0010E0101426F3E0EE7
:103FA000416F446B436B0001F6EC0BF003C0DCF097
:103FB00002C0DBF001C0DAF000C0D9F0E8C078F14F
:103FC000E7C077F1E6C076F1E5C075F101017C6BE1
:103FD0007B6B700E7A6F840E796F00010BEC0AF028
:103FE000D892D4C08CF1D3C08BF1D2C08AF1D1C0A9
:103FF00089F103C090F102C08FF101C08EF100C0C1
:104000008DF1BAEC0AF003C044F102C043F101C0E3
:1040100042F100C041F1DCC078F1DBC077F1DAC0D9
:1040200076F1D9C075F101017C6B7B6B610E7A6F03
:104030008A0E796F00010BEC0AF0D89244C18CF122
:1040400043C18BF142C18AF141C189F103C090F1B2
:1040500002C08FF101C08EF100C08DF1BAEC0AF000
:1040600003C0E0F002C0DFF001C0DEF000C0DDF010
:10407000E0C088F1DFC087F1DEC086F1DDC085F1E8
:1040800090C08CF18FC08BF18EC08AF18DC089F108
:104090001DEC0DF022E3010E01014F6F020E506F77
:1040A00000012EEC01F06C0EF66E000EF76E060E9F
:1040B0000101416F00012FEC14F0890EE96E90C0F0
:1040C00044F18FC043F18EC042F18DC041F1020E28
:1040D0000101456F0001B0EC14F090C088F18FC071
:1040E00087F18EC086F18DC085F1E0C08CF1DFC014
:1040F0008BF1DEC08AF1DDC089F11DEC0DF022E309
:10410000010E01014F6F020E506F00012EEC01F005
:10411000760EF66E000EF76E070E0101416F00017C
:104120002FEC14F0890EE96EA4C044F1A3C043F152
:10413000A2C042F1A1C041F1020E0101456F000190
:10414000B0EC14F0A4C088F1A3C087F1A2C086F13E
:10415000A1C085F1E0C08CF1DFC08BF1DEC08AF137
:10416000DDC089F11DEC0DF0D8A0C9EF25F0D88293
:10417000C0C08CF1BFC08BF1BEC08AF1BDC089F157
:104180000101906B8F6B8E6B7F0E8D6F0001BAEC0F
:104190000AF0CF0E01018C6F040E8B6F0D0E8A6F2B
:1041A000790E896F03C090F102C08FF101C08EF1CA
:1041B00000C08DF1000175EC09F003C044F102C0AC
:1041C00043F101C042F100C041F1D89203C08CF12B
:1041D00002C08BF101C08AF100C089F10101906B2E
:1041E0008F6B8E6B7F0E8D6F0001BAEC0AF003C0EF
:1041F000D0F002C0CFF001C0CEF000C0CDF0D0C0F2
:104200005EF1CFC05DF1CEC05CF1CDC05BF135ECAD
:104210000FF0AE0E01018C6FD70E8B6F740E8A6F8C
:10422000750E896F03C090F102C08FF101C08EF14D
:1042300000C08DF1000175EC09F0EACF42F1E9CF41
:1042400041F1D892940E01018C6F170E8B6F190EED
:104250008A6F710E896F03C090F102C08FF101C0A7
:104260008EF100C08DF10001BAEC0AF042C1EAFF04
:1042700041C1E9FF03C046F102C045F101C044F16C
:1042800000C043F1D0C056F1CFC055F1CEC054F1BB
:10429000CDC053F103EC11F0E80E01018C6F630EF9
:1042A0008B6F030E8A6F7A0E896F03C090F102C084
:1042B0008FF101C08EF100C08DF1000175EC09F0A5
:1042C000EACF48F1E9CF47F1D88246C18CF145C128
:1042D0008BF144C18AF143C189F103C090F102C05E
:1042E0008FF101C08EF100C08DF1BAEC0AF048C127
:1042F000EAFF47C1E9FF03C046F102C045F101C032
:1043000044F100C043F101018C6B8B6B8A6B800E12
:10431000896FD0C090F1CFC08FF1CEC08EF1CDC0EB
:104320008DF1000175EC09F003C04CF102C04BF1B6
:1043300001C04AF100C049F103C05EF102C05DF165
:1043400001C05CF100C05BF135EC0FF0C10E010162
:104350008C6F730E8B6F6F0E8A6F780E896F03C030
:1043600090F102C08FF101C08EF100C08DF100010B
:1043700075EC09F0EACF4AF1E9CF49F1D88246C19C
:104380008CF145C18BF144C18AF143C189F103C06D
:1043900090F102C08FF101C08EF100C08DF1BAEC36
:1043A0000AF04AC1EAFF49C1E9FF03C046F102C071
:1043B00045F101C044F100C043F101018C6B8B6BEE
:1043C0008A6B800E896FD0C090F1CFC08FF1CEC0C4
:1043D0008EF1CDC08DF1000175EC09F003C04EF1F6
:1043E00002C04DF101C04CF100C04BF103C056F1C9
:1043F00002C055F101C054F100C053F103EC11F0BB
:10440000460E01018C6F7C0E8B6F270E8A6F7A0E21
:10441000896F03C090F102C08FF101C08EF100C01E
:104420008DF1000175EC09F0EACF4CF1E9CF4BF1C9
:10443000D88246C18CF145C18BF144C18AF143C198
:1044400089F103C090F102C08FF101C08EF100C06C
:104450008DF1BAEC0AF04CC1EAFF4BC1E9FF03C091
:1044600046F102C045F101C044F100C043F103C070
:104470008CF102C08BF101C08AF100C089F1140EE9
:104480000101906F2E0E8F6F650E8E6F860E8D6FF1
:10449000000175EC09F003C07CF002C07BF001C0A4
:1044A0007AF000C079F001018C6B8B6B8A6B810E06
:1044B000896F78C090F177C08FF176C08EF175C0AA
:1044C0008DF1000175EC09F0D8927CC08CF17BC0B5
:1044D0008BF17AC08AF179C089F103C090F102C0F2
:1044E0008FF101C08EF100C08DF1BAEC0AF003C06B
:1044F00044F102C043F101C042F100C041F1D88251
:1045000003C08CF102C08BF101C08AF100C089F1B7
:104510000101906B8F6B960E8E6F870E8D6F000171
:10452000BAEC0AF003C084F002C083F001C082F04C
:1045300000C081F0D0C05EF1CFC05DF1CEC05CF1B3
:10454000CDC05BF135EC0FF0750E01018C6F590E8B
:104550008B6F4C0E8A6F7D0E896F03C090F102C085
:104560008FF101C08EF100C08DF1000175EC09F0F2
:10457000EACF42F1E9CF41F1D882640E01018C6F9C
:10458000B00E8B6F620E8A6F770E896F03C090F149
:1045900002C08FF101C08EF100C08DF10001BAECB4
:1045A0000AF042C1EAFF41C1E9FF03C046F102C07F
:1045B00045F101C044F100C043F1D0C056F1CFC075
:1045C00055F1CEC054F1CDC053F103EC11F0E70E1C
:1045D00001018C6FE20E8B6F0F0E8A6F7B0E896F5D
:1045E00003C090F102C08FF101C08EF100C08DF1C7
:1045F000000175EC09F0EACF48F1E9CF47F1D89214
:1046000046C18CF145C18BF144C18AF143C189F1A6
:1046100003C090F102C08FF101C08EF100C08DF196
:10462000BAEC0AF048C1EAFF47C1E9FF03C046F10E
:1046300002C045F101C044F100C043F101018C6B9F
:104640008B6B8A6B800E896FD0C090F1CFC08FF1D9
:10465000CEC08EF1CDC08DF1000175EC09F003C024
:104660004CF102C04BF101C04AF100C049F103C056
:104670005EF102C05DF101C05CF100C05BF135ECA0
:104680000FF0360E01018C6F720E8B6F5D0E8A6F0C
:10469000770E896F03C090F102C08FF101C08EF1D7
:1046A00000C08DF1000175EC09F0EACF4AF1E9CFC5
:1046B00049F1D88246C18CF145C18BF144C18AF1E0
:1046C00043C189F103C090F102C08FF101C08EF1A6
:1046D00000C08DF1BAEC0AF04AC1EAFF49C1E9FF16
:1046E00003C046F102C045F101C044F100C043F1EE
:1046F00001018C6B8B6B8A6B800E896FD0C090F13F
:10470000CFC08FF1CEC08EF1CDC08DF1000175EC20
:1047100009F003C04EF102C04DF101C04CF100C0E0
:104720004BF103C056F102C055F101C054F100C075
:1047300053F103EC11F0600E01018C6FDA0E8B6FF8
:10474000010E8A6F750E896F03C090F102C08FF160
:1047500001C08EF100C08DF1000175EC09F0EACFC7
:104760004CF1E9CF4BF1D89246C18CF145C18BF1A8
:1047700044C18AF143C189F103C090F102C08FF1B5
:1047800001C08EF100C08DF1BAEC0AF04CC1EAFF15
:104790004BC1E9FF03C046F102C045F101C044F13D
:1047A00000C043F101018C6B8B6B400E8A6F800E51
:1047B000896FD0C090F1CFC08FF1CEC08EF1CDC047
:1047C0008DF1000175EC09F003C050F102C04FF10A
:1047D00001C04EF100C04DF103C05EF102C05DF1B9
:1047E00001C05CF100C05BF135EC0FF0270E010158
:1047F0008C6FC00E8B6F300E8A6F760E896F03C080
:1048000090F102C08FF101C08EF100C08DF1000166
:1048100075EC09F0EACF4EF1E9CF4DF1D88246C1EF
:104820008CF145C18BF144C18AF143C189F103C0C8
:1048300090F102C08FF101C08EF100C08DF1BAEC91
:104840000AF04EC1EAFF4DC1E9FF03C046F102C0C4
:1048500045F101C044F100C043F101018C6B8B6B49
:10486000400E8A6F800E896FD0C090F1CFC08FF15B
:10487000CEC08EF1CDC08DF1000175EC09F003C002
:1048800052F102C051F101C050F100C04FF103C01C
:1048900056F102C055F101C054F100C053F103ECD0
:1048A00011F08F0E01018C6FFC0E8B6F410E8A6F21
:1048B000750E896F03C090F102C08FF101C08EF1B7
:1048C00000C08DF1000175EC09F0EACF50F1E9CF9D
:1048D0004FF1D89246C18CF145C18BF144C18AF1A8
:1048E00043C189F103C090F102C08FF101C08EF184
:1048F00000C08DF1BAEC0AF050C1EAFF4FC1E9FFE8
:1049000003C080F002C07FF001C07EF000C07DF0E7
:1049100074C048F173C047F172C046F171C045F1EF
:104920002AEC11F000C041F10150800A0101426FF0
:1049300002C043F103C044F180C048F17FC047F199
:104940007EC046F17DC045F100012AEC11F044C162
:104950008CF143C18BF142C18AF141C189F103C09D
:1049600090F102C08FF101C08EF100C08DF175ECA5
:1049700009F003C044F102C043F101C042F100C09C
:1049800041F103C048F102C047F101C046F100C047
:1049900045F111EC14F003C088F002C087F001C0AB
:1049A00086F000C085F0D89278C08CF177C08BF18A
:1049B00076C08AF175C089F10101906B8F6B160E7C
:1049C0008E6F850E8D6F0001BAEC0AF001018C6BC1
:1049D0008B6B8A6B810E896F03C090F102C08FF1DF
:1049E00001C08EF100C08DF1000175EC09F003C02B
:1049F00044F102C043F101C042F100C041F1D8923C
:104A000003C08CF102C08BF101C08AF100C089F1B2
:104A10007CC090F17BC08FF17AC08EF179C08DF1AE
:104A2000BAEC0AF003C08CF002C08BF001C08AF02F
:104A300000C089F001018C6B8B6B8A6B800E896FD3
:104A400088C090F187C08FF186C08EF185C08DF14E
:104A5000000175EC09F003C044F102C043F101C04C
:104A600042F100C041F103C078F102C077F101C00A
:104A700076F100C075F101017C6B7B6B700E7A6F73
:104A8000820E796F00010BEC0AF0D88201018C6B69
:104A90008B6B400E8A6F820E896F03C090F102C04B
:104AA0008FF101C08EF100C08DF10001BAEC0AF067
:104AB00003C044F102C043F101C042F100C041F122
:104AC0008CC078F18BC077F18AC076F189C075F11E
:104AD00001017C6B7B6B700E7A6F840E796F000125
:104AE0000BEC0AF0D89244C18CF143C18BF142C166
:104AF0008AF141C189F103C090F102C08FF101C078
:104B00008EF100C08DF1BAEC0AF003C044F102C08E
:104B100043F101C042F100C041F1D88203C08CF1E1
:104B200002C08BF101C08AF100C089F10101906BD4
:104B30008F6B8E6B800E8D6F0001BAEC0AF003C094
:104B400090F002C08FF001C08EF000C08DF0010E19
:104B500001014F6F020E506F00012EEC01F0800E2C
:104B6000F66E000EF76E060E0101416F00012FEC8C
:104B700014F0890EE96E90C044F18FC043F18EC0ED
:104B800042F18DC041F1020E0101456F0001B0EC10
:084B900014F00FEF16F0030012
:020000040030CA
:0E0000003FC83E1E0007A1000FC00FE00F40DA
:00000001FF
;PIC18F4550
;CRC=E2E3  CREATED="11-ene.-21 11:57"
