:1000000015EF00F0EA6A060EE96EEF500DE0020E01
:10001000016E006A002EFED7012EFBD7970E006EF0
:10002000002EFED7EF2EF3D71200F86AD09E700E86
:10003000D36ED350C150C00B0F09C16E070EB46E02
:10004000700ED36ED350F19E8A6A070E936E8B6A40
:10005000000E946E8C6A956EC050C00B0109C06E84
:10006000C08EC280C150C00B0E09C16E000E016E61
:10007000C250C30B0110C26E000E0609CA6EFA0E02
:10008000CB6E640E066EBEDFC282C2B2FED7C3CF95
:1000900004F0C4CF05F005C002F004C001F0023244
:1000A000013202320132023201C0BEFF023202309E
:1000B000300B006EBD50CF0B0010BD6E0A0E066EE9
:1000C000A1DF81B010D081B60ED08A6AF00EBD16C5
:1000D0008B6A8C6A640E066E95DF8B944C0EBD6E37
:1000E000B76AB66A8A8681B210D081B80ED08A6AA1
:1000F000F00EBD168B6A8C6A640E066E83DF8B94DD
:10010000CC0EBD6EB76AB66A8A8881B405D0F00E8F
:0C011000BD168A6A8B6A8C6AB7D70300A0
:020000040030CA
:0E0000003FC83E1E0007A1000FC00FE00F40DA
:00000001FF
;PIC18F4550
;CRC=577D  CREATED="05-ene.-21 10:56"
