:1000000016EF00F0EA6A080EE96EEF500EE0010EFE
:10001000016E006A002EFED7012EFBD74A0E006E3D
:10002000002EFED700D0EF2EF2D71200F86AD09E35
:10003000600ED36ED350C150C00B0F09C16E070EB6
:10004000B46E700ED36ED350C050C00B0109C06E99
:10005000C08EC280C150C00B0E09C16E000E016E71
:10006000C250C30B0110C26E000E0609CA6EFA0E12
:10007000CB6E640E086EC6DF94948B94959A959C13
:10008000959E4C0EBD6EB76AB66A938081B01DD046
:10009000047004A00AD094948B94959A959C959E94
:1000A0004C0EBD6EB76AB66A09D094948B94959A3B
:1000B000959C959ECC0EBD6EB76AB66A020E076E11
:1000C000FA0E086E9FDF072EFBD7C282C2B2FED7A0
:1000D000C3CF05F0C4CF06F006C002F005C001F0A2
:1000E0000232013202320132023201C0BEFF02325C
:1000F0000230300B006EBD50CF0B0010BD6E0A0EEB
:08010000086E80DFC2D7030086
:020000040030CA
:0E0000003FC83E1E0007A1000FC00FE00F40DA
:00000001FF
;PIC18F4550
;CRC=BE73  CREATED="05-ene.-21 17:04"
